:020000040800F2
:10000000A8080020A1010008993000088D2E0008E2
:1000100095300008C1110008B13800080000000048
:10002000000000000000000000000000C9300008CF
:1000300011120008000000009D300008CB300008BD
:10004000BB010008BB010008BB010008BB010008A0
:10005000BB010008BB010008BB010008BB01000890
:10006000BB010008BB010008BB010008BB01000880
:10007000BB010008BB010008C5110008D51100082C
:10008000BB010008BB010008BB010008BB01000860
:10009000BB010008BB010008BB010008BB01000850
:1000A000BB010008BB010008BB010008BB01000840
:1000B000BB0100083D310008BB010008BB0100087E
:1000C000BB010008BB010008BB010008BB01000820
:1000D000BB01000841380008BB010008BB01000853
:1000E000BB010008BB010008BB01000800F002F8DA
:1000F00000F047F80AA090E8000C82448344AAF17B
:100100000107DA4501D100F03CF8AFF2090EBAE878
:100110000F0013F0010F18BFFB1A43F0010318473B
:10012000945A0000B45A0000103A24BF78C878C12D
:10013000FAD8520724BF30C830C144BF04680C60ED
:10014000704700000023002400250026103A28BF35
:1001500078C1FBD8520728BF30C148BF0B60704739
:10016000662905F0DA83002070471FB500F0D2FA47
:1001700004000020002104F039FBE0601FBD10B531
:1001800010BD00F0E7FB1146FFF7EFFF03F014FF8F
:1001900000F005FC03B4FFF7F2FF03BC03F03AFCE8
:1001A0000948804709480047FEE7FEE7FEE7FEE70B
:1001B000FEE7FEE7FEE7FEE7FEE7FEE70448054947
:1001C000054A064B7047000039310008ED00000871
:1001D000A8020020A8080020A8040020A8040020ED
:1001E000704700000FB4044910B503AA029800F04C
:1001F0007FFA10BC5DF814FBAC0000202DE9F04143
:100200000E460446002020622046E168884730B34D
:10021000252805D0D4E901219047206A401CF2E747
:10022000E168204600278847050018D0A5F1410065
:10023000192802D820354FF4006732462946204657
:100240002760FFF78DFF40B1012804D0F61D26F08E
:1002500007060836D8E7361DD6E72846DAE7206ACB
:10026000BDE8F0814FF0000200B513469446964673
:10027000203922BFA0E80C50A0E80C50B1F12001B9
:10028000BFF4F7AF090728BFA0E80C5048BF0CC067
:100290005DF804EB890028BF40F8042B08BF7047C5
:1002A00048BF20F8022B11F0804F18BF00F8012B37
:1002B0007047704770477047704710B500F02EFACE
:1002C000006810BD10B5044600F028FA046010BDA7
:1002D00070472DE9FF4F0C461E464FF0FF378BB09D
:1002E000D2E90001DDF860800A908A46C1F30A5520
:1002F00005B93D46002108464FF00000BAF1000F55
:1003000000F4400005DA00EB80004FF4400101EA00
:1003100050004FEA9059B9F1010F00DDB9460A9833
:1003200050EA4A000ED044F61050A5F2FF3545437E
:100330002F14B8F1000F1ED07542291E1EDDC9F121
:1003400000021CE0B8F1010F4FF0000001D0302195
:1003500003E0F24305E02154401CB042FBDB304691
:100360000022002121540B99C1F80880C1E9002026
:100370000FB0BDE8F08FBD1B6D1CDEE74A4600DA0A
:10038000694206A800F06CFA06AB93E8070003ABDD
:1003900083E8070050460A9900F04AFB8DE8070001
:1003A000A0F500501F3800900398002D0ADD42F29E
:1003B0001F014A460844002303A90390684600F041
:1003C000B3FD09E0A0F500504A461F38002303A9F9
:1003D0000390684600F0BDFD8DE807000004000CA6
:1003E00003D04FF0FF30410800E01046B8F1000F95
:1003F00003D00022009215461EE0751E05D400F0C1
:1004000091F9303262556D1EF9D5B3460122084389
:1004100002D000227F1C04E02078302801D1002285
:100420007F1E002A099784D01DE0112D07DA00F005
:1004300079F9303262556D1C50EA0102F5D108435A
:1004400002D00098C8B10EE00021681E05E0235CD0
:10045000625C63542254401E491C8142F7DBAB4668
:10046000A81B401E0990002004F80B000B98099A65
:10047000C0F80880C0E9002B7AE711264FF0000889
:1004800057E72DE9F04F88460446D21D22F00701B8
:1004900091B0D1E90001CDE90A0103F00BFA02465F
:1004A0000B98C00F01D02D2007E02068810701D5EF
:1004B0002B2002E0202101EAC000032A099001D08C
:1004C000072A05DB03464146204600F089F90BE187
:1004D0002078800601D5E06900E00620B8F1650FBC
:1004E000814606D0B8F1660F18D0B8F1670F70D109
:1004F00031E00020B9F1110F009001DB112301E080
:1005000009F101030AAA01A90CA8FFF7E2FEDDE93F
:100510000C70002609F10105834647E001204B4697
:1005200000904FF000470AAA01A90CA8FFF7D1FEDE
:10053000DDE90DB00C995D46002610B909F1010006
:100540000D18B9EB050003D4C0F1FF3609F1010520
:10055000A5EB09002BE0B9F1010F01DA4FF0010919
:100560000020B9F1110F0090484601DD112300E091
:1005700003460AAA01A90CA8FFF7ABFEDDE90C703F
:100580004D4600268346207800070AD4AB4500DAA2
:100590005D4601A8012D04DD411911F8011C302927
:1005A00007D04F4502DA17F1040F04DA0120824622
:1005B0000FE06D1EEEE7002F02DCED1B3E4403E072
:1005C000781CA84200DD7D1CB81B00F1010A4FF029
:1005D00000472078000703D4AA4501DB4FF0FF3A1B
:1005E0000021B7F1004F0DF143088DF8431024D0DE
:1005F00002202B23002F01DA7F422D230A21021E25
:10060000A0F1010000DC5FB197FBF1FC97FBF1F278
:1006100001FB1C7C17460CF1300C08F801CDEEE70D
:10062000A8F1010003702188090501D5452100E0EA
:100630006521A0F1010800F8011C09980FA9A1EBA0
:100640000807FF1D00B10120411901EBEA70A16903
:100650003844081A401EA0612078C00602D4204603
:10066000AFF30080099828B1D4E901219047206AAE
:10067000401C20622078C00622D52046AFF30080BF
:100680001EE0002E04DBB34502DD01A8805D00E022
:100690003020D4E901219047206A401C2062761C5A
:1006A000AAF101005FEA000A0AD100F033F8C0683D
:1006B0000168405CD4E901219047206A401C206217
:1006C000281EA5F10105DCDC07E0D4E9012118F8BA
:1006D000010B9047206A401C2062381EA7F10107D9
:1006E000F3DC2046AFF30080032011B041E60000A8
:1006F000074B70B50D467B4400F05FF80446284672
:1007000000F020F910B14FF0FF3070BD204670BDF1
:10071000A338000000487047680200200048704776
:100720004802002030B5B0F10A024FEA900E71F194
:1007300000034EEA817EB0EB0E0061EB91014FEABF
:10074000101E4EEA017E10EB0E0041EB11114FEA34
:10075000102E4EEA016E10EB0E0041EB11214FEA14
:10076000104E4EEA014E10EB0E0041EB11414018C5
:1007700041F100014FEAD00040EA41704FEAD10157
:1007800010EB80054FEA810444EA907444EB0104C5
:100790006D1944EB0404521BA3414FF0000348BF02
:1007A0000A3200D530BD401C41F1000130BD0000CF
:1007B00001694A1C02610878704700B58FB0CDE925
:1007C00001310021059105497944CDE90310114615
:1007D0006846FFF713FD0FB000BD0000E5FFFFFF07
:1007E0002DE9F0411F46044603260168072A01F45B
:1007F000006004DB08B116A505E016A503E008B10A
:1008000015A500E015A521F010002060A069C01E0C
:10081000A0610FB1401EA0612046AFF300804FB130
:10082000D4E9012138469047206A401C2062C01C50
:10083000206206E0206AFAE7D4E9012115F8010BED
:100840009047761EF8D22046AFF30080BDE8F081D5
:100850004E414E006E616E00494E4600696E660064
:100860002DE9F047814616468AB0354878440DC8D0
:100870008DE80D0032487844801C03AC0DC884E834
:100880000D0041F69B300844372190FBF1F290FBBC
:10089000F1F5A5F1800501FB12041B3C02D5644271
:1008A000012000E00020DFF898A080460027FA44ED
:1008B000AAF1BE0A0EE0E0070AD03246684607EB0E
:1008C000470101230AEB810100F043FB8DE807009B
:1008D00064107F1C002CEED1194F7F44AE3F19E00D
:1008E000E80715D007EB04100DF1180A90E80E0088
:1008F0008AE80E00C068F04201D19819089032468B
:10090000012306A903A800F024FB03AB83E807003A
:100910006D10641C002DE3D14FF00103324669468F
:10092000B8F1000F03A802D000F0FEFA01E000F0D9
:1009300010FBC9E90001C9F808200AB0BDE8F0873A
:100940002C530000007B00F0800070470048704787
:10095000480200207546FFF7F9FFAE4605006946DC
:10096000534620F00700854618B020B5FFF726FC57
:10097000BDE820404FF000064FF000074FF00008A0
:100980004FF0000B21F00701AC46ACE8C009ACE821
:10099000C009ACE8C009ACE8C0098D46704710B585
:1009A0000446AFF300802046BDE81040FFF7F2BBDD
:1009B0004FF0013C50F8042B51F8043B9A4221D1EE
:1009C000A2EB0C03934313EACC1317D150F8042B7A
:1009D00051F8043B9A4215D1A2EB0C03934313EA5E
:1009E000CC130BD150F8042B51F8043B9A4209D197
:1009F000A2EB0C03934313EACC13DBD04FF00000BF
:100A0000704700BFD01A01BAB1FA81F101F01801A4
:100A100022FA01F0CB40C1F12001DBB2C0B2C01A12
:100A20002CFA01F3D11A914311EAC311E6D17047B0
:100A30005FEA400C08BF91F0000F4FEA8C234FEAA9
:100A4000C12243EA51514FEA1C5018BF00F5F04053
:100A50004FEA300018BF41F000415FEA6C5C00F0E3
:100A60002980BCF1FF3F08BF40F080407047130C65
:100A700006BF12044FF0100C4FF0000C130E04BF11
:100A800012020CF1080C130F04BF12010CF1040C3C
:100A9000930F04BF92000CF1020CD30F04BF52005D
:100AA0000CF1010C11464FF00002A0F11F00A0EB69
:100AB0000C00704711F0004F08BF704731F0004143
:100AC0003FF4D5AF0B0C06BF09044FF0100C4FF0EC
:100AD000000C0B0E04BF09020CF1080C0B0F04BF35
:100AE00009010CF1040C8B0F04BF89000CF1020CFE
:100AF000CB0F04BF49000CF1010CCCF12003A0EB9B
:100B00000C0022FA03F302FA0CF241EA030100F1AD
:100B10000100704720F07F4C80EA030023F07F47FC
:100B2000ACEB070303F57C5300F0004003F1FF0337
:100B30002DE980494FEA154B09B44FEA144325EAE1
:100B40000B4E24EA03480FF2042606EB132749084C
:100B50003E785FEA320203FB0667C7F5000707FB32
:100B600006F64FEA54374FEAD64606F1020607FB6F
:100B7000066CCCF1005C4FEA1C472CEA074C07FBE3
:100B800006F40CFB06F504EB15464FEA961634BF47
:100B900000204FF000404FEAD13706FB07FC4FEA38
:100BA0001C4C0CFB0BF7D21B03FB0CF761EB070192
:100BB0000CFB0EF7B0EB074072EB17420CFB08F78B
:100BC00034BFA2EB0742B2EB074261EB17414FEA99
:100BD0000C444FEA910706FB07FC4FEA1C4C0CFB48
:100BE0000BF7B0EBC74072EB573203FB0CF734BF87
:100BF000A2EBC742B2EBC74261EB57310CFB0EF7D9
:100C0000B0EBC70072EB57720CFB08F734BFA2EBD6
:100C1000C702B2EBC70261EB5771039F4FEA8161D4
:100C200041EA921104EBCC044FEAD1374FEA8262D9
:100C300006FB07FC42EA90124FEA80604FEA1C4C28
:100C40000CFB0BF7D21B03FB0CF761EB07010CFB52
:100C50000EF7B0EB074072EB17420CFB08F734BFFE
:100C6000A2EB0742B2EB074261EB17414FEA8C550A
:100C70004FEA910704EB9C2406FB07FC4FEA1C4C4F
:100C80000CFB0BF7B0EBC74072EB573203FB0CF7D2
:100C900034BFA2EBC742B2EBC74261EB57310CFB4A
:100CA0000EF7B0EBC70072EB57720CFB08F734BFBE
:100CB000A2EBC702B2EBC70261EB577115EB4C25F3
:100CC0004FEA816141EA92114FEA82624FEAD137DD
:100CD00042EA901206FB07FC44F100044FEA8060F0
:100CE0004FEA1C4C0CFB0BF7D21B03FB0CF761EB20
:100CF00007010CFB0EF7B0EB074072EB17420CFB41
:100D000008F734BFA2EB0742B2EB074261EB174191
:100D100015EB1C154FEA813141EA92414FEA8232CC
:100D200042EA90424FEA80304FEA0C7644F10004E8
:100D300048EA03434EEA0B484FF0000EB2EB080CB2
:100D400071EB030724BF624639464EEB0E0E4FF09F
:100D5000000B0018524149414BEB0B0BB2EB080C56
:100D600071EB03077BF1000B24BF624639464EEB63
:100D70000E0E4FF0000B0018524149414BEB0B0B8C
:100D8000B2EB080C71EB03077BF1000B24BF62464A
:100D900039464EEB0E0E51EA020718BF46F0010627
:100DA00016EB0E7655F1000254F1000103D5BDE8B3
:100DB0008901BDE80088BDE88901BDE80048B61991
:100DC000524141EB0101A3F10103704780807F7E16
:100DD0007D7C7B7A797877767675747372717170B1
:100DE0006F6E6E6D6C6C6B6A6A6968686766666563
:100DF0006464636362616160605F5F5E5E5D5D5CF1
:100E00005C5B5B5A5A595958585757565655555561
:100E10005454535352525251515050504F4F4F4EC1
:100E20004E4D4D4D4C4C4C4B4B4B4A4A4A4949490F
:100E30004848484747474746464645454544444451
:100E4000444343434342424242414141002B9C467A
:100E500030D477002BD01CB54FEA370703B44FF0DE
:100E600010004FF01001BAF1000F06D0BCF1000FD6
:100E7000DCBF40F0080040F008014FF000000FBC5C
:100E8000BDE810400BF1010BBBF1010F08BF5FEA99
:100E9000170722BF12F1010211F101014FF00041C9
:100EA00043F1000300F0004043EA00007047F9D32B
:100EB0005708D0E746EA064613F1400F4FEA1646B8
:100EC0001FDD13F1200FDFBF16430A460021203338
:100ED0005B42BED0C3F1200746EA064602FA07F796
:100EE0004FEA164646EA0706C3F1200722FA03F244
:100EF00001FA07F721FA03F14FF0000342EA070273
:100F0000A7E746EA020646EA06464FEA164646EADA
:100F10000106BCBF46EA0646360C4FF000034FF010
:100F200000024FF0000194E72DE9804C9A46934669
:100F300070B491E8380007C831EA400C48BF34EA81
:100F4000430C03D5FFF7E6FDFFF780FFF0BCBDE8DB
:100F5000008C2DE9804C9A46934670B491E8380095
:100F600007C810F0804F08BF13F0804F03D100F086
:100F700005F8FFF76BFFF0BCBDE8008C20F07F4761
:100F800080EA030023F07F4C07EB0C03A3F57C53AE
:100F900000F00040A3F1FE0392F0000F00F0B380D8
:100FA00095F0000F00F077802DE901494FEA1140DC
:100FB0004FEA144621EA004800FB06FC24EA0647F3
:100FC00008FB06F607FB08F800FB07F718EB0648D6
:100FD0004CEB164C4FEA124B18EB07484FEA1546FC
:100FE0004CEB174022EA0B4E0BFB06FC25EA0647AA
:100FF0000EFB06F607FB0EFE0BFB07F71EEB064E7D
:101000004CEB164C4FF000061EEB074E4CEB174B0B
:1010100018EB0B0840F1000018EB0E0B58EB000822
:1010200040F100008F1A4FF000013CBFC943661B1E
:1010300014BFB5EB040C00213CBFC943F61B4FEABB
:1010400017444EEA8E0E27EA04454FEA1C4704FB7C
:1010500007622CEA074C05FB07F70CFB05F604FBBF
:101060000CFC16EB074642EB174216EB0C4642EB24
:101070001C421BEB060658EB0202414146EA9E0663
:1010800001D5BDE80189B619524141EB0101A3F137
:101090000103BDE801894FEA14454FEA114724EAEC
:1010A000054621EA074C05FB07F406FB07F70CFB96
:1010B00006F105FB0CFC11EB074144EB17444FEA2A
:1010C000124711EB0C4144EB1C4422EA074C05FB90
:1010D00007F206FB07F70CFB06F605FB0CFC16EB0C
:1010E000074642EB174216EB0C4642EB1C456A18CA
:1010F00054F1000148BF7047B619524141EB01015C
:10110000A3F10103704795F0000F37D04FEA114269
:101110004FEA144721EA024624EA074C02FB07F192
:1011200006FB07F70CFB06F402FB0CFC14EB074470
:1011300041EB17414FEA154714EB0C4441EB1C41BE
:1011400025EA074C02FB07F506FB07F70CFB06F642
:1011500002FB0CFC16EB074645EB174516EB0C465D
:1011600045EB1C42121951F1000148BF7047B619F6
:10117000524141EB0101A3F1010370474FEA1445CD
:101180004FEA114724EA054621EA074C05FB07F11F
:1011900006FB07F70CFB06F24FF0000605FB0CFC04
:1011A00012EB074241EB174112EB0C4251EB1C4191
:1011B00048BF7047921841EB0101A3F1010370474A
:1011C00000BFFEE710B5024800F0AAF810BD00000D
:1011D000C001002010B5024800F0A2F810BD0000C8
:1011E0000402002030B590F840500124AC40C56B9B
:1011F0006C60046863604468102C04D10468A260C9
:101200000468E16003E00468A1600468E26030BD46
:10121000704772B600BFFEE70146002291F8210038
:10122000022808D00420886300BF002081F8200035
:1012300000BF012070470868006820F00E000B68AE
:1012400018600868006820F001000B68186091F8C9
:10125000403001209840CB6B5860012081F821007C
:1012600000BF002081F8200000BF1046E2E7000028
:1012700070B50446002594F82100022803D004200C
:10128000A063012548E02068006820F00E00216876
:1012900008602068006820F00100216808601F498C
:1012A0002068884201D1012026E01C4914312068C1
:1012B000884201D110201FE0184928312068884257
:1012C00001D1801518E015493C312068884201D1D0
:1012D000801411E0114950312068884202D14FF446
:1012E000803009E00D4964312068884202D14FF412
:1012F000801001E04FF080700849083948600120F3
:1013000084F8210000BF002084F8200000BF606B3B
:1013100010B12046616B8847284670BD0800024026
:1013200070B50446E06B05682068066894F84010C4
:10133000042088402840002846D006F004000028F9
:1013400042D02068006800F0200028B920680068BA
:1013500020F004002168086057492068884201D1C4
:10136000042027E0544914312068884201D14020EC
:1013700020E0514928312068884201D1001519E048
:101380004D493C312068884202D14FF4804011E041
:10139000494950312068884202D14FF4802009E049
:1013A000454964312068884202D14FF4800001E051
:1013B0004FF08060404908394860E06A00287AD0E0
:1013C0002046E16A884776E094F840100220884081
:1013D0002840A0B306F0020088B32068006800F03F
:1013E000200040B92068006820F00A0021680860E9
:1013F000012084F8210030492068884201D1022070
:1014000028E02D4914312068884201D1202021E0B4
:10141000294928312068884201D140151AE026491F
:101420003C312068884202D14FF4005012E022493A
:1014300050312068884203D14FF400300AE017E0B1
:101440001D4964312068884202D14FF4001001E048
:101450004FF0007018490839486000BF002084F838
:10146000200000BFA06A30B32046A16A884722E06E
:1014700094F84010082088402840E0B106F00800A9
:10148000C8B12068006820F00E002168086094F858
:10149000401001208840E16B48600120A06384F87F
:1014A000210000BF002084F8200000BF206B10B195
:1014B0002046216B884770BD08000240014600228B
:1014C00009B901207047164B0868C01A1423B0FBF5
:1014D000F3F08000086412480838C863022081F8DD
:1014E00021000868026843F6F0708243D1E90103E5
:1014F0001843CB6818430B6918434B6918438B6931
:101500001843CB69184302430868026000208863CF
:10151000012081F82100002081F8200000BFD1E7E0
:10152000080002402DE9F04104460D4616461F46CC
:101530004FF0000800BF94F82000012802D10220DB
:10154000BDE8F081012084F8200000BF94F821005C
:1015500001282CD1022084F821000020A0632068FB
:10156000006820F00100216808603B4632462946A9
:101570002046FFF737FEE06A30B12068006840F08F
:101580000E00216808600BE02068006820F004006D
:10159000216808602068006840F00A00216808603F
:1015A0002068006840F001002168086006E000BF84
:1015B000002084F8200000BF4FF002084046BFE73B
:1015C00070B5044600F0B0F906462546681C10B117
:1015D00004480078054400BF00F0A6F9801BA8422B
:1015E000FAD370BDA40000202DE9F847034600227D
:1015F00094466EE14FF0010808FA02F4D1F8008039
:1016000008EA0400A0427DD1DFF8DCA2D1F8048012
:10161000A8EB0A09D0453AD014DCB8F1030F50D03A
:1016200009DCB8F1000F31D0B8F1010F1CD0B8F1CE
:10163000020F49D120E0B8F1110F18D0B8F1120F04
:1016400042D11EE0B9F5881F25D006DCB9F5803FF0
:1016500020D0B9F5801F37D11AE0B9F5001F18D096
:10166000B9F5041F30D117E0D1F80CC02DE0D1F846
:101670000C8008F1040C28E0D1F80C8008F1080C6B
:1016800023E0D1F80C8008F10C0C1EE000BF00BF75
:1016900000BF00BF00BF00BFD1F80880B8F1000F45
:1016A00002D14FF0040C0BE0D1F80880B8F1010F23
:1016B00003D14FF0080C1C6102E04FF0080C5C6194
:1016C00003E04FF0000C00E000BF00BFFF2801D88E
:1016D000984601E003F104084646FF2802D84FEA85
:1016E000820803E0A2F108084FEA88084746D6F8C6
:1016F00000804FF00F0909FA07F928EA09080CFAE7
:1017000007F900E088E048EA0908C6F80080D1F847
:10171000048008F08058B8F1805F7DD100BFDFF809
:10172000CC81D8F8188048F00108DFF8C091C9F8DA
:101730001880C846D8F8188008F00108CDF8008055
:1017400000BF00BF4FEAB9384FEA920958F8295054
:101750004FEA82784FEA18794FF00F0808FA09F833
:1017600025EA0805DFF88881434502D14FF00008DB
:1017700016E0DFF88081434502D14FF001080FE009
:10178000DFF87481434502D14FF0020808E0DFF82A
:101790006C81434502D14FF0030801E04FF004088B
:1017A0004FEA82794FEA197908FA09F848EA0505FB
:1017B000DFF84C814FEA920948F82950D1F80480AB
:1017C00008F48018B8F5801F0AD1DFF83881D8F8FE
:1017D000008048EA0008DFF82C91C9F8008009E091
:1017E000DFF82081D8F8008028EA0008DFF814919B
:1017F000C9F80080D1F8048008F40018B8F5001F7B
:1018000010D1DFF8008108F10408D8F8008048EA18
:101810000008DFF8F09000E05AE009F10409C9F887
:1018200000800DE0DFF8DC8008F10408D8F80080C3
:1018300028EA0008DFF8CC9009F10409C9F8008013
:10184000D1F8048008F40038B8F5003F0ED1DFF875
:10185000B480A8F10408D8F8008048EA0008DFF84E
:10186000A490A9F10409C9F800800DE0DFF8948084
:10187000A8F10408D8F8008028EA0008DFF884906E
:10188000A9F10409C9F80080D1F8048008F480386F
:10189000B8F5803F0ED1DFF86C80A8F10808D8F8C1
:1018A000008048EA0008DFF85C90A9F10809C9F84F
:1018B00000800DE0DFF84C80A8F10808D8F800801F
:1018C00028EA0008DFF83C90A9F10809C9F800806F
:1018D000521CD1F8008028FA02F8B8F1000F7FF40A
:1018E00089AEBDE8F887000000001110001002402A
:1018F00000080140000C01400010014000140140AC
:10190000080001400804014010B5C26821EA020342
:1019100002EA010443EA0443036110BD0AB1016114
:1019200001E00B0403617047014800687047000044
:101930009C000020034800680349097808440149D5
:10194000086070479C000020A400002010B50848E3
:10195000006840F0100006490860032000F0A8F875
:101960000F2000F007F800F02BF8002010BD000059
:101970000020024070B504460E4800784FF47A719A
:10198000B1FBF0F00C490968B1FBF0F5284600F016
:10199000F9FB08B1012070BD102C07D200222146AE
:1019A000501E00F047F80548046001E00120F2E70E
:1019B0000020F0E7A4000020A8000020A0000020E4
:1019C00008B500BF1148806940F001000F498861E7
:1019D0000846806900F00100009000BF00BF00BF12
:1019E0000846C06940F08050C8610846C06900F0F0
:1019F0008050009000BF00BF00BF0549486820F03C
:101A0000E06040F00070486000BF08BD0010024078
:101A10000000014001460846002809DB00F01F03D2
:101A200001229A4043099B0003F1E023C3F80021FF
:101A300000BF70472DE9F05F80460D46164600272F
:101A400001F060FF074639462A46334601F0070099
:101A5000C0F1070ABAF1040F02D94FF0040A01E0FD
:101A6000C0F1070AD14600F1040ABAF1070F02D209
:101A70004FF0000A01E0A0F1030AD4464FF0010A3A
:101A80000AFA09FAAAF1010A0AEA020A0AFA0CFA9F
:101A90004FF0010B0BFA0CFBABF1010B0BEA030B44
:101AA0004AEA0B042146404601F034FFBDE8F09FAE
:101AB00000BF00F00702064B19684FF6FF031940FC
:101AC000044B0B4343EA0221014B196000BF7047EE
:101AD0000CED00E00000FA0570B504460D460CB9A7
:101AE000012070BD5A48006800F00700A8420ED2DD
:101AF0005748006820F00700284355490860084609
:101B0000006800F00700A84201D00120E9E7207832
:101B100000F0020002281DD1207800F00400042803
:101B200005D14C48406840F4E0604A49486020785C
:101B300000F00800082805D14648406840F460508D
:101B4000444948604348406820F0F000A1680843D9
:101B500040494860207800F0010078B360680128AF
:101B600006D13C48006800F4003090B90120B8E785
:101B70006068022806D13748006800F0007040B95C
:101B80000120AEE73348006800F0020008B90120E8
:101B9000A7E73048406820F00300616808432D49FA
:101BA0004860FFF7C1FE064609E0FFF7BDFE801B57
:101BB00041F28831884202D9032092E707E02548A4
:101BC000406800F00C006168B0EB810FEDD1204857
:101BD000006800F00700A8420ED91D48006820F0F8
:101BE000070028431A4908600846006800F007000B
:101BF000A84201D0012074E7207800F004000428F6
:101C000007D11448406820F4E060E16808431149B6
:101C10004860207800F00800082808D10D48406886
:101C200020F46050216940EAC1000A49486000F090
:101C30003FF808494968C1F30311074A515CC8409D
:101C40000649086006480068FFF794FE002048E750
:101C500000200240001002406C5A0008A80000203A
:101C6000A00000200148006870470000A800002084
:101C700000B5FFF7F7FF04494968C1F30221034AA1
:101C8000515CC84000BD0000001002407C5A0008B2
:101C900000B5FFF7E7FF04494968C1F3C221034AD1
:101CA000515CC84000BD0000001002407C5A000892
:101CB00070B500210022002400230020134D696824
:101CC00001F00C05F5B1042D02D0082D19D101E069
:101CD0000F4819E00F4DC1F38346AB5D01F4803529
:101CE00055B10A4D6D68C5F340450B4E725D084D08
:101CF0005D43B5FBF2F402E0084D03FB05F420461A
:101D000002E000BF024800BF00BF70BD00100240EB
:101D100000127A005A5A00086A5A000800093D0069
:101D2000F8B504460CB90120F8BD207800F0010098
:101D3000002878D0F848406800F00C0004280CD047
:101D4000F548406800F00C00082811D1F2484068BE
:101D500000F48030B0F5803F0AD1EF48006800F40D
:101D6000003000285FD0606800285CD10120DBE7EC
:101D700000BF6068B0F5803F06D1E748006840F4D6
:101D80008030E549086028E0606858B9E24800689A
:101D900020F48030E04908600846006820F4802084
:101DA00008601AE06068B0F5A02F0BD1DA4800682F
:101DB00040F48020D84908600846006840F480302C
:101DC00008600AE0D448006820F48030D2490860F6
:101DD0000846006820F48020086000BF606888B171
:101DE000FFF7A2FD054606E0FFF79EFD401B6428B5
:101DF00001D9032098E7C848006800F400300028A3
:101E0000F2D010E0FFF790FD054606E0FFF78CFDED
:101E1000401B642801D9032086E7BF48006800F40E
:101E200000300028F2D1207800F00200022857D1BB
:101E3000B948406800F00C0050B1B748406800F065
:101E40000C00082818D1B448406800F4803098B9D4
:101E5000B148006800F0020020B12069012801D0DB
:101E6000012061E7AC48006820F0F800616940EAB1
:101E7000C100A949086033E02069E8B10120A74901
:101E80000860FFF751FD054606E0FFF74DFD401BDA
:101E9000022801D9032047E79F48006800F00200AC
:101EA0000028F2D09C48006820F0F800616940EA00
:101EB000C1009949086013E0002098490860FFF7C5
:101EC00033FD054606E0FFF72FFD401B022801D930
:101ED000032029E79048006800F002000028F2D1B2
:101EE000207800F0080008282DD1A069B8B10120A1
:101EF0008B490860FFF718FD054606E0FFF714FD63
:101F0000401B022801D903200EE78348406A00F0F5
:101F100002000028F2D0012001F0C2F813E00020F6
:101F20007F490860FFF700FD054606E0FFF7FCFC6F
:101F3000401B022801D90320F6E67748406A00F0EA
:101F400002000028F2D1207800F00400042873D1A8
:101F500000277148C06900F0805070B900BF6E481A
:101F6000C06940F080506C49C8610846C06900F003
:101F70008050009000BF00BF01276A48006800F44D
:101F80008070B0B96748006840F4807065490860A7
:101F9000FFF7CAFC054606E0FFF7C6FC401B6428B5
:101FA00001D90320C0E65F48006800F48070002873
:101FB000F2D000BFE068012806D15748006A40F01F
:101FC00001005549086227E0E06858B95248006AA4
:101FD00020F00100504908620846006A20F0040021
:101FE000086219E0E06805280BD14B48006A40F010
:101FF0000400494908620846006A40F0010008628E
:102000000AE04548006A20F001004349086208469A
:10201000006A20F00400086200BFE068A0B1FFF78A
:1020200083FC054609E0FFF77FFC401B41F2883145
:10203000884202D9032077E622E03748006A00F0A0
:1020400002000028EFD012E0FFF76EFC054608E022
:10205000FFF76AFC401B41F28831884201D9032016
:1020600062E62D48006A00F002000028F0D1012F3E
:1020700005D12948C06920F080502749C86100BFB8
:10208000E069C8B32448406800F00C00082860D01C
:10209000E069022848D1002020490866FFF744FC87
:1020A000054606E0FFF740FC401B022801D903204B
:1020B0003AE61948006800F000700028F2D1206A62
:1020C000B0F5803F07D11448406820F40030A16883
:1020D000084311494860D4E9080108430E4949689A
:1020E00021F4741108430C49486001200B4908662B
:1020F000FFF71AFC054607E03DE0FFF715FC401B23
:10210000022801D903200FE60348006800F00070A0
:102110000028F2D02FE000000010024000004242F0
:102120008004424200700040002014490866FFF716
:10213000FBFB054606E0FFF7F7FB401B022801D931
:102140000320F1E50E48006800F000700028F2D18D
:1021500011E0E069012800D1E6E50948466806F487
:102160008031206A814204D106F47011606A814294
:1021700001D00120D8E50020D6E500000000424251
:102180000010024070B504462546681EB0F1807FFD
:1021900001D301200FE0681E4FF0E02148610F21BC
:1021A0004FF0FF3001F0B6FB00204FF0E0218861D6
:1021B00007200861002070BD7047704730B50246A7
:1021C0000B4600BF92F83C00012801D1022030BD2F
:1021D000012082F83C0000BF022082F83D00106818
:1021E00044681068816824F070041868044310681B
:1021F0004460104D1068A8420BD01068B0F1804FB9
:1022000007D00D4D1068A84203D00C4D1068A842AD
:1022100005D121F0800158680143106881600120D8
:1022200082F83D0000BF002082F83C0000BF00BFE4
:10223000CDE70000002C01400004004000080040F1
:1022400010B504460CB9012010BD94F83D0028B922
:10225000002084F83C00204600F026F8022084F894
:102260003D00211D206800F071FF012084F8460028
:1022700000BF84F83E0001213F2001554020015558
:102280004120015500BF00BF012084F842004320D7
:102290000155442001554520015500BF012084F817
:1022A0003D000020D0E7000038B504460D49206805
:1022B000884215D100BF0C48C06940F002000A49AD
:1022C000C8610846C06900F00200009000BF00BF6E
:1022D000002211461D20FFF7ADFB1D20FFF79AFBE2
:1022E00038BD00000004004000100240014691F893
:1022F0003D00012801D001207047022081F83D00F7
:102300000868C06840F001000B68D860124B08688C
:1023100098420BD00868B0F1804F07D00F4B086887
:10232000984203D00E4B086898420CD10868806828
:1023300000F00702062A0CD00868006840F001008F
:102340000B68186005E00868006840F001000B6841
:1023500018600020D0E70000002C0140000400407D
:10236000000800402DE9F04104460D46002700BF5B
:1023700094F83C00012802D10220BDE8F081012040
:1023800084F83C0000BF022084F83D002068866885
:1023900026F0770626F47F46206886602868502855
:1023A00033D00CDC202850D004DC00284BD010287F
:1023B00051D149E0302849D040284CD139E060283B
:1023C0002DD0702807D0B0F5805F03D0B0F5005F46
:1023D00041D10DE041E0D5E902136A68206800F0C0
:1023E000EFFE2068866846F077062068866034E055
:1023F000D5E902136A68206800F0E2FE2068806870
:1024000040F480402168886027E0EA6869682068B5
:1024100000F0EAFE5021206800F0DDFE1DE0EA68D1
:102420006968206800F0F3FE6021206800F0D3FEA8
:1024300013E0EA686968206800F0D6FE4021206851
:1024400000F0C9FE09E000BF00BF00BF2968206896
:1024500000F0C1FE01E0012700BF00BF012084F8A9
:102460003D0000BF002084F83C0000BF384684E7F0
:10247000704710B5044620680069C0F34000D8B129
:102480002068C068C0F34000B0B16FF0020021685E
:102490000861012020772068806900F0030018B1EE
:1024A0002046FFF7E5FF05E0204600F0ADF82046A6
:1024B00000F0ABF80020207720680069C0F38000AE
:1024C000D8B12068C068C0F38000B0B16FF00400DC
:1024D00021680861022020772068806900F440703C
:1024E00018B12046FFF7C4FF05E0204600F08CF845
:1024F000204600F08AF80020207720680069C0F3A9
:10250000C000D8B12068C068C0F3C000B0B16FF09F
:10251000080021680861042020772068C06900F065
:10252000030018B12046FFF7A3FF05E0204600F0A6
:102530006BF8204600F069F80020207720680069D9
:10254000C0F30010D8B12068C068C0F30010B0B16B
:102550006FF0100021680861082020772068C069AA
:1025600000F4407018B12046FFF782FF05E02046D6
:1025700000F04AF8204600F048F800202077206854
:10258000006900F0010058B12068C06800F0010047
:1025900030B16FF0010021680861204600F036F884
:1025A00020680069C0F3C01058B12068C068C0F34B
:1025B000C01030B16FF08000216808612046FFF73D
:1025C000FBFD20680069C0F3801058B12068C06826
:1025D000C0F3801030B16FF04000216808612046E0
:1025E00000F020F920680069C0F3401058B120685D
:1025F000C068C0F3401030B16FF02000216808615E
:102600002046FFF7DAFD10BD7047704710B504464D
:102610007D492068884270D17C480068401C7B4915
:1026200008607B48408B0968884205DD01229102E1
:102630007848FFF773F9E1E07548408B7349096802
:1026400088420BDC71480068B0F5FA6F06DC0022A6
:102650004FF480616F48FFF761F9CFE06B48006885
:10266000B0F5FA6F0DDD6A48808B00F5FA606749B6
:102670000968884205DD0122D1026648FFF74EF95C
:10268000BCE06348808B00F5FA60604909688842C5
:102690000BDC5E480068B0F57A6F06DC00224FF470
:1026A00000615C48FFF73AF9A8E058480068B0F5C7
:1026B0007A6F0DDD5648C08B00F57A605349096882
:1026C000884205DD012211035248FFF727F995E002
:1026D0004F48C08B00F57A604C49096888420DDC90
:1026E0004A48006841F27071884207DC00224FF4CA
:1026F00080514848FFF712F980E084E043480068C1
:1027000041F2707188420CDD4148008C08443F4919
:102710000968884205DD012204213F48FFF7FEF8E1
:102720006CE03B48008C41F27071084437490968FD
:1027300088420ADC35480068B0F5FA5F05DC002203
:1027400004213548FFF7EAF858E030480068B0F552
:10275000FA5F0DDD2E48408C00F5FA502B490968D0
:10276000884205DD012220212C48FFF7D7F845E0FB
:102770002748408C00F5FA502449096888420BDC50
:102780002248006842F21071884205DC00222021B4
:102790002248FFF7C3F831E01C48006842F210718C
:1027A00088420CDD1A48808C084418490968884220
:1027B00005DD012211021948FFF7B0F81EE01448A8
:1027C000808C42F2107108441049096888420CDC80
:1027D0000E48006842F6E061884206DC00224FF4B1
:1027E00080710E48FFF79AF808E00848006842F642
:1027F000E061884202DD0020044908606FF00100BA
:1028000007490968086110BD0004004098000020D5
:10281000000000200010014000140140000C0140A5
:10282000300100207047704770B5044600252068CD
:102830004069C0F3C01594F84100212817D1B5B103
:1028400000BF00BF2168143151E8001F21F0800053
:102850002168143141E80002002AF3D100BFA06BC7
:1028600010B1A06BFEF7D8FC204600F0FBFD2068FD
:102870004069C0F3801594F84200222817D1B5B101
:1028800000BF00BF2168143151E8001F21F0400053
:102890002168143141E80002002AF3D100BFE06B47
:1028A00010B1E06BFEF7B8FC204600F095FD00206B
:1028B00070BD70472DE9F84F044620680568206810
:1028C000C668206847694FF00009CA4605F00F093D
:1028D000B9F1000F0AD105F0200038B106F0200050
:1028E00020B1204600F0D1FDBDE8F88FB9F1000F0E
:1028F0007BD007F0010018B906F49070002874D05E
:1029000005F0010030B106F4807018B1606C40F041
:102910000100606405F0040030B107F0010018B157
:10292000606C40F00200606405F0020030B107F016
:10293000010018B1606C40F00400606405F008000C
:1029400048B106F0200010B907F0010018B1606C22
:1029500040F008006064606C002845D005F020005D
:1029600028B106F0200010B1204600F08EFD20684E
:102970004069C0F3801A606C00F0080010B9BAF129
:10298000000F2CD0204600F027FD2068406900F0A1
:10299000400000B300BF00BF2168143151E8001FA0
:1029A00021F040002168143141E80002002AF3D1EF
:1029B00000BFE06B50B17748E16B4863E06BFEF716
:1029C00057FC88B1E06B416B88470DE02046FFF76C
:1029D00070FF09E009E02046FFF76BFF04E02046A6
:1029E000FFF767FF002060647EE7206B012877D146
:1029F00005F01000002873D006F010000028FAD06F
:102A000000BF0020009020680068009020684068A7
:102A1000009000BF00BF2068406900F0400000281F
:102A20005FD0E06B006840681FFA80F8B8F1000FD3
:102A300055D0A08D404552DDA4F82E80E06B806912
:102A4000202843D000BF00BF21680C3151E8001F8F
:102A500021F4807021680C3141E80002002AF3D192
:102A600000BF00BF00BF2168143151E8001F21F0F2
:102A700001002168143141E80002002AF3D100BFAF
:102A800000BF00BF2168143151E8001F21F0400051
:102A90002168143141E80002002AF3D100BF202050
:102AA00084F842000020206300BF00BF21680C3181
:102AB00051E8001F21F0100021680C3141E80002AC
:102AC000002AF3D100BFE06BFEF7A6FB0220606393
:102AD000A08DE28D801A81B22046FFF7A4FE03E7A5
:102AE00042E0A08DE18D401A1FFA80F8E08DD0B34E
:102AF000B8F1000F37D000BF00BF21680C3151E89A
:102B0000001F21F4907021680C3141E80002002A76
:102B1000F3D100BF00BF00BF2168143151E8001F8E
:102B200021F001002168143141E80002002AF3D1AC
:102B300000BF202084F842000020206300BF00BFB7
:102B400021680C3151E8001F21F0100021680C3180
:102B500041E80002002AF3D100BF02206063414631
:102B60002046FFF760FEBFE605F0800030B106F0BA
:102B7000800018B1204600F0E9FDB5E605F0400000
:102B800030B106F0400018B1204600F05BFCABE627
:102B900000BFA9E63732000810B504460CB9012081
:102BA00010BDA06900B100E000BF94F8410028B951
:102BB000002084F84000204600F02AF8242084F801
:102BC00041002068C06820F400502168C860204699
:102BD00000F0DAFC2068006920F490402168086168
:102BE0002068406920F02A00216848612068C06898
:102BF00040F400502168C86000206064202084F800
:102C0000410084F842000020606300BFC8E7000074
:102C100010B586B004460020029003900490059001
:102C200037492068884269D100BF3648806940F43E
:102C30008040344988610846806900F480400190F2
:102C400000BF00BF00BF0846806940F004008861F3
:102C50000846806900F00400019000BF00BF4815DD
:102C60000290022003900320059002A92648FEF757
:102C7000BBFC4FF48060029000200390049002A9F6
:102C80002148FEF7B1FC2148214908601020486026
:102C900000211F4881608021C160002101614161E4
:102CA0008161C161FEF70AFC08B1FEF7B2FA00BF0C
:102CB0001748A063446200BF1448143015490860E7
:102CC000002048600021134881608021C1600021FC
:102CD000016141618161C161FEF7F0FB08B1FEF75E
:102CE00098FA00BF0B48E063446200BF002211461F
:102CF0002520FEF79FFE2520FEF78CFE06B010BDB6
:102D00000038014000100240000801404400024029
:102D1000C00100200402002070B504460D4616468E
:102D200094F8420020280BD105B10EB9012070BDE6
:102D30000020206332462946204600F0A3FCF6E737
:102D40000220F4E7704770472DE9F84F04460E461D
:102D5000174699464FF0000A94F8410020284AD1BE
:102D600006B117B90120BDE8F88F0020606421206A
:102D700084F84100FEF7D8FD8246A784E784A06866
:102D8000B0F5805F04D1206910B90025B04602E09B
:102D900035464FF000081BE05346002280212046B4
:102DA000CDF8009000F002FD08B10320DBE745B943
:102DB000B8F80000C0F308002168486008F1020874
:102DC00003E02878216848606D1CE08C401EE08498
:102DD000E08C0028E0D15346002240212046CDF867
:102DE000009000F0E3FC08B10320BCE7202084F849
:102DF00041000020B7E70220B5E70000F7B5044620
:102E0000154694F84100202836D1019800B10DB93B
:102E10000120FEBD01982062A584E5840020606445
:102E2000212084F841001548A16B88621448A16BE9
:102E3000C8621448A16B08630020A16B486301AE0F
:102E400023681A1D31682B46A06BFEF76BFB6FF0F1
:102E500040002168086000BF00BF2168143151E8BC
:102E6000001F41F080002168143141E80002002A6F
:102E7000F3D100BF0020CCE70220CAE7733300087B
:102E8000CB3300084B3200087047704700BFFEE7A5
:102E900008B500BF0E48406940F001000C49486188
:102EA0000846406900F00100009000BF00BF00220A
:102EB00011460E20FEF7BEFD0E20FEF7ABFD0022F0
:102EC00011460F20FEF7B6FD0F20FEF7A3FD08BD4B
:102ED0000010024000B585B00020019002900390E0
:102EE000049000BF3E48806940F010003C49886172
:102EF0000846806900F01000009000BF00BF00BFCE
:102F00000846806940F0200088610846806900F02A
:102F10002000009000BF00BF00BF0846806940F05D
:102F2000040088610846806900F00400009000BF3A
:102F300000BF00BF0846806940F00800886108466D
:102F4000806900F00800009000BF00BF00224FF42D
:102F5000E0512448FEF7E2FC002204212248FEF75B
:102F6000DDFC00224FF490712048FEF7D7FC0122CF
:102F700051021E48FEF7D2FC4FF4E05001900120B0
:102F80000290002003900220049001A91548FEF74A
:102F90002BFB0420019001200290002003900320CD
:102FA000049001A91048FEF71FFB4FF490700190A8
:102FB00001200290002003900220049001A90B48F8
:102FC000FEF712FB4FF40070019001200290039075
:102FD0000220049001A90548FEF706FB05B000BDDC
:102FE000001002400010014000140140000C01409C
:102FF00000B587B0002003900490059006900190E2
:103000000290144814490860472048600021124883
:1030100081600921C160002101618161FFF710F920
:1030200008B1FEF7F6F84FF48050039003A90A4860
:10303000FFF798F908B1FEF7ECF800200190029034
:1030400001A90548FFF7BAF808B1FEF7E2F807B0A2
:1030500000BD0000000400403001002010B50B4806
:103060000B4908604FF4E130486000210848816056
:10307000C16001610C21416100218161C161FFF7E3
:103080008BFD08B1FEF7C5F810BD00000038014007
:103090007801002000BFFEE700BFFEE77047000098
:1030A00008B508490968C9084FF47A72B1FBF2F112
:1030B0004143009100BF00BF00994A1E00920029C1
:1030C000F9D108BDA8000020704710B5FEF732FC0A
:1030D00010BD00B58FB0282105A8FDF7C3F8142155
:1030E0006846FDF7BFF80120059000040690002017
:1030F00007900120099002200C90C1030D914FF41C
:10310000E0110E9105A8FEF70BFE08B1FEF781F85D
:103110000F20009002200190002002904FF4806068
:1031200003900020049002216846FEF7D5FC08B108
:10313000FEF76FF80FB000BD7047000010B50248F1
:10314000FFF797F910BD00003001002010B50268AC
:10315000184B984208D0B0F1804F05D0164B9842DA
:1031600002D0164B984203D122F070024B681A43EA
:10317000104B984208D0B0F1804F05D00E4B9842CA
:1031800002D00E4B984203D122F44072CB681A430E
:1031900022F080034C6943EA040202608B68C36238
:1031A0000B688362034B984201D10B6903630123CF
:1031B000436110BD002C01400004004000080040A5
:1031C00030B50C46816821F47F4142EA032525434E
:1031D0002943816030BD0A46816821F0700142F0C8
:1031E000070319438160704730B50B461446026AE5
:1031F000056A25F001050562816921F0F00141EAC7
:10320000041122F00A021A438161026230BD30B516
:103210000B461446026A056A25F0100505628169AD
:1032200021F4704141EA043122F0A00242EA031283
:103230008161026230BD70B505466C6A0020E08590
:10324000E0842046FFF735FB70BD70B506460025CB
:10325000746A20684069C0F3C01594F841002128C1
:1032600005D125B10020E084204600F0FBF820685D
:103270004069C0F3801594F84200222805D125B199
:103280000020E085204600F0A7F8606C40F01000B8
:1032900060642046FFF70DFB70BD70B505466C6A93
:1032A0002868006800F02000002842D1E08500BFB7
:1032B00000BF21680C3151E8001F21F480702168A3
:1032C0000C3141E80002002AF3D100BF00BF00BF6B
:1032D0002168143151E8001F21F0010021681431E8
:1032E00041E80002002AF3D100BF00BF00BF2168FF
:1032F000143151E8001F21F040002168143141E8E9
:103300000002002AF3D100BF202084F84200206B85
:1033100001280ED100BF00BF21680C3151E8001F09
:1033200021F0100021680C3141E80002002AF3D19D
:1033300000BF00206063206B012804D1A18D2046CE
:10334000FFF771FA02E02046FFF7FCFC70BD70B594
:1033500005466C6A01206063206B012805D1A08DB1
:1033600041082046FFF75FFA02E02046FFF7EBFC3A
:1033700070BD70B505466C6A2868006800F02000D2
:10338000F8B90020E08400BF00BF2168143151E883
:10339000001F21F080002168143141E80002002A5A
:1033A000F3D100BF00BF00BF21680C3151E8001FFE
:1033B00041F0400021680C3141E80002002AF3D1BD
:1033C00002E02046FFF760FD70BD70B50446656AF7
:1033D0002846FFF75AFD70BD00BF00BF02680C32DF
:1033E00052E8002F22F4907102680C3242E8001378
:1033F000002BF3D100BF00BF00BF0268143252E8B7
:10340000002F22F001010268143242E80013002B61
:10341000F3D100BF016B01290ED100BF00BF0268CC
:103420000C3252E8002F22F0100102680C3242E800
:103430000013002BF3D100BF202180F8421000219F
:103440000163704710B504462068C06820F0400052
:103450002168C860202084F841002046FFF714FD51
:10346000002010BD00BF00BF02680C3252E8002FE0
:1034700022F0C00102680C3242E80013002BF3D1A5
:1034800000BF202180F841107047F8B5044694F839
:103490004200222875D1A068B0F5805F0CD1206968
:1034A00050B90025A66A20684068C0F30800308043
:1034B000A06A801CA06215E0A56A0026A068B0F58D
:1034C000805F03D0A06828B9206918B920684068D7
:1034D000287004E02068406800F07F002870A06A2F
:1034E000401CA062E08D401E80B2E085002846D1DD
:1034F0002068C06820F020002168C8602068C0688B
:1035000020F480702168C8602068406920F00100C4
:1035100021684861202084F8420000206063206B0D
:10352000012826D10020206300BF00BF21680C3194
:1035300051E8001F21F0100021680C3141E8000221
:10354000002AF3D100BF2068006800F010001028A6
:103550000AD100BF00200090206800680090206819
:103560004068009000BF00BFA18D2046FFF75BF9C7
:1035700002E02046FFF7E6FB0020F8BD01E0002056
:10358000FBE70220F9E7000070B5044621680969ED
:1035900021F44051E2681143226811612269A16857
:1035A0001143626941EA02052168C96841F20C626F
:1035B000914329432268D1602168496921F440710F
:1035C000A2691143226851612D4A2168914202D1BA
:1035D000FEF75EFB01E0FEF74BFB00EBC00101EBE9
:1035E000001162689200B1FBF2F100EBC00202EB45
:1035F000001263689B00B2FBF3F26423B2FBF3F2A8
:1036000002EBC20303EB0212A1EB8201322202EBB6
:1036100001116422B1FBF2F101F0F00100EBC002F4
:1036200002EB001263689B00B2FBF3F26423B2FB6F
:10363000F3F201EB021200EBC00101EB0011636831
:103640009B00B1FBF3F100EBC00303EB00136668D2
:10365000B600B3FBF6F36426B3FBF6F303EBC30645
:1036600006EB0313A1EB8301322303EB0111642367
:10367000B1FBF3F101F00F0111442268916070BDBC
:103680000038014077B581B0044615460298A06223
:10369000A58500206064222084F842002848E16B60
:1036A00088622848E16BC8622748E16B0863002004
:1036B000E16B486302AE32682368191D2B46E06B4C
:1036C000FDF730FF00BF00200090206800680090E8
:1036D00020684068009000BF00BF206970B100BF43
:1036E00000BF21680C3151E8001F41F4807021684F
:1036F0000C3141E80002002AF3D100BF00BF00BF37
:103700002168143151E8001F41F001002168143193
:1037100041E80002002AF3D100BF00BF00BF2168CA
:10372000143151E8001F41F040002168143141E894
:103730000002002AF3D100BF002004B070BD0000D9
:103740009B3200084F3300084B320008014691F8C5
:103750004100212828D18868B0F5805F0BD1086925
:1037600048B90A6A1088C0F308000B685860086AF4
:10377000801C086205E00B6A581C086218780B6808
:103780005860C88C401E80B2C88458B90868C068A8
:1037900020F080000B68D8600868C06840F04000E6
:1037A0000B68D860002070470220FCE72DE9F0414B
:1037B00004460D4617469846069E34E0701C88B3B2
:1037C0002EB1FEF7B1F8A0EB0800B0422BD900BF34
:1037D00000BF21680C3151E8001F21F4D07021682E
:1037E0000C3141E80002002AF3D100BF00BF00BF46
:1037F0002168143151E8001F21F0010021681431C3
:1038000041E80002002AF3D100BF202084F84100E3
:1038100084F8420000BF002084F8400000BF03206D
:10382000BDE8F081FFE7206800682840A84201D188
:10383000012000E00020B842C0D00020F0E70000E6
:1038400038B51748FFF736F8154800680068C0F328
:10385000001020B300BF00200090114800680068ED
:1038600000900F4800684068009000BF00BF012032
:103870000C4908700A48FEF7D7FF0B4800684068FB
:10388000C5B2C5F16400C4B2224608490448FFF736
:10389000B5FA642205490248FFF73EFA00BF38BD79
:1038A000780100202A00002004020020CC00002023
:1038B00000BFFEE7490050EAC12018BF04204A0DAE
:1038C00018BF40F0010040F2FF72B2EB515F08BF39
:1038D00040F00200012808BF05207047410008029F
:1038E00018BF04200A0E18BF40F001004FF07F42BD
:1038F00032EA010108BF40F00200012808BF05209C
:103900007047000002480068C0F3022070470000C2
:103910000CED00E010B5002804DB0A07130E054A81
:10392000135406E00A07140E034A00F00F031B1F8E
:10393000D45410BD00E400E018ED00E02DE9F041A2
:103940004F1E00EBC7010446D1E9000115461E4693
:1039500037F006020DD02A46334601F0DBF97F1E10
:1039600004EBC703D3E9002300F088FF37F0060219
:10397000F1D1022F25D0042F13D0062F18BFBDE898
:10398000F0812A46334601F0C5F9D4E90A2300F054
:1039900075FF2A46334601F0BDF9D4E9082300F04B
:1039A0006DFF2A46334601F0B5F9D4E9062300F04D
:1039B00065FF2A46334601F0ADF9D4E9042300F04F
:1039C0005DFF2A46334601F0A5F9D4E9022300F051
:1039D00055FF2A46334601F09DF9D4E90023BDE89E
:1039E000F04100F04BBF012201F0CBBF024A0020A2
:1039F000110701F0C6BF000001FDFFFF012101F02A
:103A0000EEBF0021084601F0F3BC6FF05E0108072D
:103A100001F0E5BF00BF70472DE9F04104464FF0CB
:103A20001A4000EB4400B0F1C85F204655D84FF073
:103A3000FC41B1EB440F1CD224F000404FF07E510A
:103A400001F064FE4FF0FF3101F0C9FF054600F0C0
:103A50004DFC14F0004F1DBF2C4F2D4E80F0004048
:103A6000002708BF3E464FF0404101F083FD044669
:103A700005E0284F284E014601F07CFD0546274908
:103A8000284601F077FD264901F04AFC294601F05D
:103A900071FD244901F044FC294601F06BFD2249E7
:103AA00001F03EFC294601F065FD204901F038FC9B
:103AB00080462946204601F05DFD414601F05AFD51
:103AC00005463146204601F021FE294601F0B0FEB0
:103AD0003946BDE8F04101F023BC4FF0CC41B1EBD9
:103AE000440F84BF1248BDE8F0814FF07F41B1EB35
:103AF000440F03D2BDE8F041FFF780BF0120FCF77F
:103B0000E1FBBDE8F041FFF77CBF00000000494049
:103B100022AA7D3A0000C93F22AAFD3924FE1C3D9D
:103B2000C78AD83C1E67383D1B93993DAFAA2A3EF1
:103B3000DB0FC93F2DE9F84F04460D4621F0004048
:103B400000917349814211DC7249884201DC06D13F
:103B50002CB120462946BDE8F84FFFF744BF6E4818
:103B6000002DCCBF6D496E49BDE8F88F6D4981428B
:103B700011DD6D498142D8BF4FF0FF366DDD204623
:103B80002946FFF797FE042808BFFFF72FFF2046BE
:103B90002946BDE8F88F6549654F25F0004581420B
:103BA00033DD6449814219DD002632464FF08043FF
:103BB0002046294600F062FE80468A4601222046C1
:103BC000294601F0DEFE00223B4601F093FA424610
:103BD000534600F003FF04460D463EE00126002256
:103BE000BA463B462046294600F048FE80460F462E
:103BF000002253462046294601F07CFA42463B46C5
:103C000000F0ECFE04460D4627E04B4981421BDDE7
:103C1000DFF828A10226002253462046294601F05B
:103C200079F800223B4600F029FE80460F4600222C
:103C300053462046294601F05DFA42463B4600F0D5
:103C4000CDFE04460D4608E0032622462B46002002
:103C50003B4900F0C3FE04460D4622462B46104663
:103C6000194601F057F88B46824602460B4601F092
:103C700051F807460246334888460B4606217844E9
:103C8000FFF75CFE52465B4601F044F882462E4840
:103C90008B463A46434605217844FFF74FFE3A46A5
:103CA000434601F037F802460B46002E504659466F
:103CB0000CDA00F0E3FD22462B4601F02BF801B0B0
:103CC00022462B46BDE8F04F01F022B900F0D6FDA8
:103CD00022462B4601F01EF81C4A7A4402EBC6032A
:103CE000D3E9002301F006FA22462B4601F002FA3E
:103CF000174A7A4402EBC603D3E9002301F008F91E
:103D0000009A002AB8BF81F00041BDE8F88F00009A
:103D1000000010440000F07F182D4454FB21F93FAF
:103D2000FB21F9BF0000DC3F0000203E0000F33F14
:103D30000000F03F0000E63F008003400000F83F35
:103D40000000F0BF6E1E00002C1E0000CA1D000007
:103D5000921D00002DE9F041054604464FF00E404B
:103D600000EB4400B0F1145F76D24FF0FE40B0EBB0
:103D7000440F24BF002637460CD214F0004F19BF61
:103D8000454F464E464F474E2146474801F030FBCF
:103D9000054604464FF0FC40B0EB440F2CD243499B
:103DA000DFF80C8114F0004F0AD04FF03F44384642
:103DB00001F03EFD07464146304601F039FD09E07D
:103DC0004FF07C54384601F0ABFA07464146304686
:103DD00001F0A6FA06462146284601F0CBFB4FF03B
:103DE0007E5101F09DFA80462146284601F020FDD3
:103DF000414601F0FDFA05462946084601F0BAFBA6
:103E000080462C4901F0B6FB2B4901F089FA414666
:103E100001F0B0FB294901F083FA414601F0AAFB09
:103E2000274901F07DFA414601F0A4FB254901F044
:103E300077FA04464146284601F09CFB214601F0F2
:103E400099FB314601F06CFA294601F069FA3946CE
:103E5000BDE8F04101F064BA4FF0E440B0EB440F2C
:103E600009D92846FFF73AFD042808BFFFF7CDFD22
:103E70002846BDE8F0814FF07F40B0EB440F04D2FC
:103E80002046BDE8F041FFF7B9BD14F0004F14BF64
:103E90000D480E48BDE8F0810000C9BF22AAFDB957
:103EA0000000C93F22AAFD39000080BF0060ED3E3E
:103EB000C30ACE372DAD65BD8FB8D53D0FB511BE48
:103EC00061C84C3EA8AAAABEDB0FC9BFDB0FC93F21
:103ED00010B50446304830F814100246A01D32F8E0
:103EE0001000814227DD1146A01D31F81010801D01
:103EF00022F810100EE01E20FDF762FB264904F1A7
:103F00000C0031F81000401C81B2234A04F10C006F
:103F100022F81010204904F10C0031F8100031F89B
:103F200014108842E7DB1C4830F814100246A01D2C
:103F300022F810102FE0184830F814100246A01D87
:103F400032F81000814226DA1146A01D31F8101017
:103F5000801D22F810100EE01E20FDF731FB0E49E7
:103F600004F10C0031F81000401E81B20A4A04F13D
:103F70000C0022F81010084904F10C0031F8100070
:103F800031F814108842E7DC034830F81410024678
:103F9000A01D22F8101010BD0000002013B50C4623
:103FA0004FF6FF73012269460248FEF7CDFE0098E6
:103FB0001CBD000078010020FDF7C8FCFFF789F860
:103FC000FEF788FFFEF764FFFFF712F8FFF746F8E9
:103FD000A448FEF735F96FF00100A24909680861AD
:103FE000A048FEF783F9A0480068C06840F01000C0
:103FF0009D490968C86064229C499B48FEF78CFE75
:104000002EE14FF400719A48FDF77EFC6420FDF725
:10401000D7FA984800780128F2D1944800783728D8
:104020007ED100F079F90022934B944903C900F046
:1040300071FE80460022924B00F0D0FC0646002222
:10404000904B00F01BFC044600F020FE8E49488097
:104050000022894B8D4903C900F05CFE0646002210
:10406000874B00F0BBFC04460022894B00F006FCA5
:10407000804600F00BFE8449888000227E4B8549F3
:1040800003C900F047FE064600227D4B00F0A6FC67
:10409000804600227E4B00F0F1FB044600F0F6FD66
:1040A0007949C8800022744B7B4903C900F032FE75
:1040B00080460022724B00F091FC06460022774BAE
:1040C00000F0DCFB044600F0E1FD6F490881BB20F5
:1040D00088810420FFF7FCFE0320FFF7F9FE012092
:1040E000FFF7F6FE0220FFF7F3FE0620FFF7F0FED3
:1040F0004FF47A70FDF764FA0022614B634903C9FB
:1041000000F0BCFB824600225B4B00F003FE06463B
:1041100000225B4B00F062FC044600225C4B00E096
:104120000CE000F0ABFB804600F0B0FD5649888003
:104130000220FFF7CDFE00204E4908704B48007862
:1041400038287DD100F0E8F800224B4B4B4903C9D9
:1041500000F0E0FD80460022494B00F03FFC06469F
:104160000022484B00F08AFB044600F08FFD4649D0
:1041700048800022404B454903C900F0CBFD06466C
:1041800000223F4B00F02AFC04460022404B00F086
:1041900075FB804600F07AFD3B4988800022364B53
:1041A0003C4903C900F0B6FD06460022344B00F03E
:1041B00015FC04460022364B00F060FB804600F000
:1041C00065FD3149C88000222B4B334903C900F0FB
:1041D000A1FD804600222A4B00F000FC064600228A
:1041E0002E4B00F04BFB044600F050FD26490881A1
:1041F0000420FFF76DFE0320FFF76AFE0120FFF7A2
:1042000067FE0220FFF764FE4FF47A70FDF7D8F9DD
:1042100080201D4988810620FFF75AFE0022184B96
:104220001A4903C900F02AFB06460022124B00F08F
:1042300071FD80460022124B00F0D0FB044600E0E6
:104240000EE00022124B00F019FB824600F01EFD2A
:104250000D4988800220FFF73BFE002005490870C9
:10426000CFE600003001002078010020CC000020C3
:10427000000C01402A00002000004940900000206E
:10428000008046400040644000000020780000208C
:1042900000C0624080000020880000200060634071
:1042A0002DE9F04106460F4600F03EFE041E0D4685
:1042B00018BF0120284320F00040C0F17F6000F1CA
:1042C000E040C00F0ED0301C18BF0120384320F052
:1042D0000040C0F17F6000F1E040C00F04BF01204A
:1042E000FBF7F0FF20462946BDE8F08170B5054692
:1042F00001F016FA044620F00040C0F1FF40C00F64
:1043000008D025F00040C0F1FF40C00F04BF0120DD
:10431000FBF7D8FF204670BD2DE9FC5FEE484078E2
:10432000302826D1EC494979A1F1300000F0DBFCBE
:104330008046EA4AEA4B00F0EDFC04460D46E649A9
:104340008978303964225143E34AD278303A02EB1B
:10435000820201EB4202E04909793039501800F03D
:10436000C2FC064622462B4600F088FADD4A03C20C
:104370002BE0D9484078312827D1D7494979A1F194
:10438000300000F0B0FC8046D44AD54B00F0C2FCAF
:1043900004460D46D0498978303964225143CE4ACB
:1043A000D278303A02EB820201EB4202CA49097923
:1043B0003039501800F097FC064622462B4600F094
:1043C0005DFA81F00041C74A03C2C34880793028B2
:1043D00026D1C149897AA1F1300000F084FC06465B
:1043E000BE4ABF4B00F096FC04460D46BA49C97957
:1043F000303964225143B84A127A303A02EB8202D1
:1044000001EB4202B449497A3039501800F06BFC94
:10441000804622462B4600F031FAB34A03C22BE015
:10442000AD488079312827D1AB49897AA1F1300094
:1044300000F059FC0646A94AA94B00F06BFC8046E7
:104440008946A549C979303964225143A24A127A72
:10445000303A02EB820201EB42029F49497A30393D
:10446000501800F040FC044642464B4600F006FA65
:1044700081F000419C4A03C29A480CC89BA0FBF7FC
:10448000B1FE99480CC89CA0FBF7ACFE96480146CB
:104490000CC803C900F03EFC04460D469148014695
:1044A0000CC803C900F036FC064622462B4600F035
:1044B000E5F98046FFF7F4FE82460022914B00F0BA
:1044C00019FE914A03C290480CC890A0FBF78AFEDF
:1044D0008D4801460CC803C900F01CFC8046002230
:1044E0008C4B00F0CBF90646FFF7DAFE04460022BB
:1044F000894B00F00FFC82468B46834801460CC86E
:1045000003C900F007FC06460022844B00F0B6F910
:10451000804600227F4B00F0B1F904460022804B18
:1045200000F0E8FD52465B46CDE9000100F056FA86
:104530007C4A03C27B480CC87BA0FBF753FE794939
:1045400003C900F069F90546FFF766FA044600F072
:10455000BBFE784A03C277480CC877A0FBF742FE3F
:1045600069480CC80020784900F038FA064600F087
:1045700053F90546FFF7EEFB044600F0A5FE734A2B
:1045800003C272480CC872A0FBF72CFE5E480146BD
:104590000CC803C900F0BEFB824600225F4B00F04E
:1045A000B7FC064600225B4B00F0A4FD80460022CB
:1045B0005B4B00F063F904460022694B00F00EFAF1
:1045C000684A03C267480CC867A0FBF70BFE654941
:1045D00003C900F021F90546FFF71EFA044600F072
:1045E00073FE644A03C263480CC863A0FBF7FAFD7C
:1045F000504856490CC803C900F040F98046624A49
:10460000624B00F0EBF906460022614B00F082FBA2
:10461000044600225F4B00F07BFC81F000415E4AC3
:1046200003C25D480CC85DA0FBF7DCFD564A574B42
:10463000504903C900F0D2F906460022544B00F05D
:1046400069FB04460022594B00F062FC584A03C241
:1046500057480CC857A0FBF7C5FD464835490CC85C
:1046600003C900F00BF9064638480CC8304600F084
:1046700005F90446444A454B00F0B0F98246002251
:10468000434B00F047FB80460022484B00F040FCC3
:104690004C4A03C24B480CC84BA0FBF7A3FD114882
:1046A00011490CC803C900F099F98046FFF742FA96
:1046B0000646354A354B00F091F904460022344B4A
:1046C00000F028FB444A03C243480CC843A0FBF750
:1046D00089FDBDE8FC9F0000CC0000209A999999C3
:1046E0009999B93F30000020380000200A78302026
:1046F0003D2025660A0000007930203D2025660A0D
:104700000000000000E06440400000206D203D20DB
:1047100025660A000000704000E0694020ECC440BB
:104720000040BE40480000206131203D2025660A3F
:104730000000000060000020616E676C6531203D64
:104740002025660A000000000000304068000020BC
:10475000616E676C6532203D2025660A000000000E
:1047600000CAD140580000206133203D2025660A50
:104770000000000070000020616E676C6533203D12
:104780002025660A00000000F1D4C853FB2119401F
:104790000080764000805640780000207468657480
:1047A0006131203D2025660A00000000008066403F
:1047B00080000020746865746132203D2025660AFF
:1047C0000000000088000020746865746133203D9B
:1047D0002025660A000000009000002074686574BF
:1047E0006134203D2025660A0000000010B5002934
:1047F0000AD00878002807D005487844FCF7D8F894
:10480000002801D0002010BD0248784410BD0000EF
:10481000DA130000D213000021F00042A2F160522E
:10482000B2F5801F01F0004328BFD2F17F6C0BD995
:104830005FEA001C43EAC20242EB507018BF7047A7
:1048400028BF20F001007047B2F5801FBCBF18469A
:1048500070474FEA410C1CF5001F02D2084600F0D9
:1048600050BF70B500F000FB00000089FFF7F6BFF5
:104870004FF00040A0F580007047000010B591EAAD
:10488000030F48BF83F0004300F13C84841A71EBAE
:10489000030C05D2121943EB0C03001B61EB0C0156
:1048A000DFF824E14FEA1154A4EB135C1EEA430F36
:1048B00018BF9EEA445F73D023EA0E03DCF1200E9A
:1048C00021EA045143F4801332D322FA0CFE10EB98
:1048D0000E0023FA0CFE41EB0E01CCF1200E03FA80
:1048E0000EFE10EB0E0051F10001B1F5801FCCF16E
:1048F000200E32D201EB045112FA0EF2BDE8104044
:1049000058BF7047401C38BF5FEA420218BF70476B
:10491000002814BF20F0010041F100014FEA4103DB
:1049200013F5001F38BF7047A1F1C04100F0EABA8B
:10493000012A43EB0302ACF1200CDCF11F0E32BF65
:104940004FF0000E23FA0CF310EB030041EB04517F
:10495000B4EB115FD0D0A1EB045101F580114908EF
:104960005FEA300001EB04510ED350F1000038BF74
:1049700012FA0EFE08D1BDE81040C9E7401C38BF4E
:104980005FEA4202CAD1C3E7BDE810404FEA4103E3
:1049900013F5001F38BF7047A1F1C04100F0B2BA53
:1049A0009EEA445F08D011EA5E0FBDE8104004BFE4
:1049B00001F0004100207047BDE8104070B500F0E4
:1049C00053FA00BF64FBBE3E0000E0FF02494FF017
:1049D000000000F0A4BF00BF0000F87F2DE9C04137
:1049E00030B4DFF8A0C23CEA111418BF3CEA13143B
:1049F00000F0EC8081EA03051CEA111444EAD57446
:104A000018BF1CEA131500F0C780A4EB05044FF093
:104A1000004545EAC12145EAC32341EA505143EA32
:104A2000525304F17F74994204F500344FEAC020D8
:104A30004FEAC22208BF904200F09C804FEA136503
:104A40000FF24016765D4FEA134506FB05F7C7F1F6
:104A5000807706FB07F74FEAD737A7FB0368764254
:104A6000C8F58038A7FB06CE38BFA8F1010807FBC0
:104A700008E64FF0000EA6FB028CE6FB03CEDCF14D
:104A8000000CCEF1004E38BFAEF1010EA6FB0C5863
:104A90004FF000074FF00005E6FB0E87A1FB08C6AC
:104AA000A0FB07CE16EB0E0645F10005E1FB0765FE
:104AB00015F1E04E7EBFA4F580345FEA46066D41F5
:104AC00016F1800745F100054FEA17274FEA066601
:104AD00047EA0567A6F1DE46B6F1805F4FEA152585
:104AE0001FD9384624F0010C05EBC471BCF1FE6FF0
:104AF00001EB0C1102D8F0BCBDE8008124425CBF80
:104B000001F5801E9EEAC47F02D4F0BCBDE800819E
:104B1000244238D4F0BCA1F1C041BDE8004100F00E
:104B2000F1B94FEAD22242EA43524FEAD323A7FB1C
:104B300002864FEAD02040EA415007FB03661EEA96
:104B40000E0F4FEAD12105FB026658BFA6EB0056B7
:104B5000B6EB00564FEA520E4EEAC37E18EB0E0E2D
:104B600056EB530EBDD518EB02085E417F1C55F184
:104B70000005B6E74FF480154FF000074FF0000630
:104B80004FF00008ADE7F0BC4FF0000001F1C0416C
:104B900001F00041BDE8008111EA0C1F0CEA131579
:104BA00000D00CE013EA0C1F00F025804FF000004D
:104BB000F0BC81EA030101F00041BDE80081F0BCD6
:104BC000BDE8004181EA030100F09CB9F0BCBDE8FA
:104BD000004170B500F048F9097EFC3E00F007B8CE
:104BE00081EA03014FF0000001F00041704781EAC3
:104BF000030100F087B9F0BCBDE800414FF00000B0
:104C000021497047FFFDFBF9F7F5F4F2F0EEEDEB0B
:104C1000E9E8E6E4E3E1E0DEDDDBDAD8D7D5D4D3BA
:104C2000D1D0CFCDCCCBCAC8C7C6C5C4C2C1C0BF06
:104C3000BEBDBCBBBAB9B8B7B6B5B4B3B2B1B0AF0C
:104C4000AEADACABAAA9A8A8A7A6A5A4A3A3A2A1F0
:104C5000A09F9F9E9D9C9C9B9A99999897979695AB
:104C600095949393929191908F8F8E8E8D8C8C8B47
:104C70008B8A8989888887878685858484838382CF
:104C8000828181800000FF070000F87F4FEA115306
:104C9000A3F58063D3F11E03A8BFD3F1200C08DB7A
:104CA0004FF0004242EAC12252EA505232FA03F077
:104CB000704709420BD4102BC4BF0020704703F586
:104CC000787CBCF1FF3F05D04FF0FF3070474FF0CC
:104CD0000000704770B500F0C7F800BF499224800B
:104CE00000207047F0E710F0004248BF4042B0FAA1
:104CF00080F310FA03F10AD0C3F11D0303F58063BA
:104D00004FEA415002EB035202EBD12170474FF0C2
:104D100000007047DFF848C170B51CEA111E1EBFC5
:104D20001CEA13159EEA0C0F95EA0C0F00F06F8039
:104D300081EA030423EA4C134EEAD47E21EA4C11A3
:104D400041F4801143F48013AE44A1FB024CA0FB5C
:104D50000365AEF17F7E361955EB0C05A1FB034CC4
:104D60004CF10003A0FB021C16EB0C06654153F14D
:104D70000003094218BF46F0010613F4007F0BD16F
:104D80004FEA03314FEA0530340341EA155140EA56
:104D900016506FF003020AE04FEAC3214FEAC52024
:104DA000F40241EA555140EA56506FF0020202EB1C
:104DB0002E4201EB025585EACE710AD05FEA440C1F
:104DC00018BF24F0004450F1000041F1000120EA36
:104DD000D47040F2FE7C624500D270BDA84214BF80
:104DE0004FF080444FF04044002E08BF0024BEF135
:104DF000806FA8BFA1F1C041BDE8704080F2828001
:104E00004FF0000001F1C04101F0004170479EEAFF
:104E10000C0F0CEA131518BF95EA0C0F06D04FF0D3
:104E2000000081EA030E0EF0004170BD00F01CF896
:104E30008900013E00F007B800F009B84FEA430CC2
:104E40005FEA5C5C08D081EA030100F05BB84FEADE
:104E5000410C5FEA5C5CF6D14FF0000001497047FD
:104E60000000FF070000F87F0EF1020E2EF0030E87
:104E70005EF8046B364205D4012A43EB030515F5B1
:104E8000001F12D8012841EB010C1CF5001F0CD8A3
:104E90000ED14FEAD17C15F5001F0CEB4C0C0CF138
:104EA000020C08BF4CEBD37C04E04FF0080C01E08F
:104EB0004FEAD37C0CEB4C0526FA05F606F0070604
:104EC000B6F1040C06D20EEB860CBDE870404CF037
:104ED000010C6047DFE80CF0090B02024FF00041C3
:104EE0004FF00000A1F5002170BD194610460128C1
:104EF00051EB010418BFD4F5001484BF002001F069
:104F0000004170BD0808A0F500114FEA310170475B
:104F100091EA030F10B581F000413FF5B7AC83F083
:104F2000004300F0EFB800002DE9F04101F5801CCE
:104F3000BCF5001FC0F2C3804FEA115C21EA0C519E
:104F40000CF1FD0C41F480115FEA5C0C0CF5C07CA7
:104F500001D3400049413DA4890241EA90518702B2
:104F60008E0E0A0CA45D04FB04F602FB06F6C6F1E5
:104F70004046A4FB0662F60D46EA422606FB06F40E
:104F8000A4FB01235242C3F1404338BF5B1EA6FB82
:104F900002420024E6FB0324D20B42EA4446A6FB6D
:104FA0000623A1FB02E2A3FB07E4A4184FF00002D2
:104FB00052F10002E3FB01426442C2F1404E38BFAD
:104FC000AEF1010EA6FB04234FF00002E6FB0E3209
:104FD000A2FB03464FF00004B61954F10004E2FBB3
:104FE0000264A1FB06E6A4FB07E816EB08064FF0F7
:104FF000000858F10008E4FB01687642C8F1405807
:1050000038BFA8F10108A2FB06E4A3FB08E52D19AF
:105010004FF0000454F10004E2FB0854A1FB05E644
:10502000A7FB04E818EB06084FF0000656F100064F
:10503000E1FB048618F1200556F10006A809A8F145
:105040001B08B10908F03F08B8F10A0F40EA866072
:105050001CD901EB0C51BDE8F08100BFFCF5EEE876
:10506000E2DDD8D3CFCBC7C3C0BDB9B6B4B1AEAC07
:10507000A9A7A5A3A19F9D9B9A9896959392908F7F
:105080008D8C8B898887868584838281A0FB0068CC
:1050900000FB01F208EB4208B8EB872807D534186B
:1050A00058EB0104D5D5401C51F10001D1E7341A69
:1050B00078EB0104CDD4401E71F10001C9E75FEA2D
:1050C0004C0C5FEA9C5C0DD105D34FF0000001F061
:1050D0000041BDE8F081BDE8F04170B5FFF7C4FEC6
:1050E0006DDBFFBEBDE8F0414FF0000000497047A6
:1050F0000000F87F10B591EA030F48BF83F000432A
:105100003FF5C4AB841A71EB030C07D212198CF073
:10511000004C43EB0C03001B61EB0C01DFF8A4E136
:105120004FEA1154A4EB135C1EEA430F18BF9EEA2A
:10513000445F00F0B08023EA6E03524221EA04513A
:10514000C3EB6E0338BF5B1EDCF1200E25D322FAC1
:105150000CFE10EB0E0043FA0CFE41EB0E01CCF1FD
:10516000200E03FA0EFE10EB0E0051F10001CCF1FF
:10517000200E29D412FA0EF201EB0451BDE81040C2
:1051800058BF7047401C1CBFB2F1004F7047002849
:105190000CBF491C20F00100704712EB020E43EBDC
:1051A000030218BF4FF0010E4EEA4202ACF1200C90
:1051B000DCF11E0E54D943FA0CFE10EB0E0051F137
:1051C000FF31CCF11E0ED5D50EF1010E12FA0EFEF6
:1051D000404141EB010101EB445C5FEA5C5C10D9AA
:1051E00010EBDE7001EB045138BFBEF1004FBDE89B
:1051F000104018BF704700280CBF491C20F0010068
:10520000704730D24FEAD42C11F5001124F4006419
:105210001BD0B1FA81F20B3AA41AA41ED2F12003DA
:10522000914030FA03F31943904001EBCC71002C0C
:1052300001EB0451BDE81040A8BF704701F1C04127
:105240004FF0000001F000417047B0FA80F310FA0F
:1052500003F100D110BDE41A173C4805C90AE4E780
:1052600001EB045110BD491001EB0451BDE81040A1
:105270004FEA300002E04FF0000170474A0008BFDB
:105280000042F8D0B2F5001F28BF704701F000417E
:105290004FF0000070479EEA445F07D011EA5E0FAE
:1052A000BDE8104004BF002100207047BDE8104059
:1052B00070B5FFF7D9FD00BF40DFF63E83F0004137
:1052C000104670470000E0FF43004FEAD30C4FEA5E
:1052D0003C0C43401FBF40070CF1605113F0FE4FE0
:1052E00070471CF0006F03D100200CF000417047A4
:1052F0000CF0004343EA507010B540EACC0000F0D7
:10530000BAF900BF000000924FEA0001FFF7FABDB2
:105310004FF000414FF00000A1F500217047000060
:1053200090EA010F48BF81F0004100F18882421AE3
:105330003CBF801A89184FEAD0524FF07F4C1CEACC
:10534000410FA2EBD15318BF9CEA026F00F03B80E3
:105350004FF0004C4CEA00204CEA012121FA03FCFA
:1053600010EB0C0C1ED202F1FF325FEA1C2040EB66
:10537000C25038BF70471CF07F0F4FEA400C18BF77
:10538000BCF17F4F38BF7047C3F12003994008BF7D
:1053900020F00100BCF17F4F38BF7047A0F1C04042
:1053A00000F0AFB94FEA3C00000A40EBC25028BF02
:1053B0001CF0FF0F4FEA400CE6D018BFBCF17F4F46
:1053C00038BF7047EAE79CEA026F05D010EA5C0F2D
:1053D00008BF00F00040704710B500F04CF900BF66
:1053E00064FBBE3E014800F09ABA00BF0000C07FD7
:1053F0004FF47F0C1CEAD0121EBF1CEAD11392EAB4
:105400000C0F93EA0C0F00F0858090EA010F48BF63
:1054100042F4807240F4000C41F400002CF07F4113
:1054200020F07F4000B58142A2EB03020FF2081C7E
:10543000ACEB504EC0F100009EF800E04FEA4E0E7B
:1054400000FB0EFC38BF49004FEA2C1C02F5FA02A3
:105450000CFB0EF34FEACE1E4FEA112C4FEAC1218E
:105460000EEB635E42EB22420EFB0CFC4FEA1C5338
:1054700000FB03114FEA112C4FEA01310EFB0CFC2B
:105480004FEADC4C00FB0C11C14228BF09184CEB61
:1054900003335DF804EB10EB410143EBC250B2F56E
:1054A0007C0F38BF704729D512F0F00F1CBF00F1F8
:1054B000C04000F000407047008182838485868769
:1054C00088898B8C8D8E8F919293959697999A9CC3
:1054D0009D9FA0A2A3A5A7A8AAACAEB0B2B3B5B732
:1054E000B9BCBEC0C2C5C7C9CCCED1D4D7D9DCDF08
:1054F000E2E6E9ECF0F3F7FAFE0000004FEA400CB8
:105500000CF1807CBCF17E4F28BF7047B0F1C040E9
:1055100000F0F7B890EA010F0CEAD11348BF42F44B
:105520008072624538BF634507D213F47F0F16D0EF
:1055300080EA010000F00040704710B500F09BF8D1
:10554000097EFC3E00F005B880EA010000F0004052
:10555000704780EA010000F0004000F0D2B812F479
:105560007F0F04BF0248704780EA010000F0C9B80D
:105570000000C07F4FF47F0C1CEAD0121EBF1CEA53
:10558000D11392EA0C0F93EA0C0F00F0478090EAD7
:10559000010F48BF42F480724FF0004C4CEA0020EB
:1055A0004CEA012102EB0302A0FB0113A2F5000269
:1055B000002918BF43F001035B0028BF4FEA330303
:1055C00042EB22425FEA132C4CEBC2502EBFBCEBE5
:1055D000436FB2F57C0F70474FEA036CBCF1004F8C
:1055E00008BF20F00100B2F57C0F38BF70470BD523
:1055F00082F0FF0212F5803FC8BF704700F1C04043
:10560000D8BF00F00040704700F5000C5FEA4C0C7A
:1056100048BF7047B0F1C04000F073B890EA010F86
:105620000CEAD11348BF42F48072624538BF63452B
:1056300004D280EA010000F00040704710B500F08D
:105640001AF800BF8900013E00F007B800F009B861
:105650005FEA410C5FEA1C6C08D080EA010000F0B0
:1056600050B85FEA400C5FEA1C6CF6D14FF0004086
:10567000A0F5800070470EF1020E2EF0030E5EF8CA
:10568000044B244204D44FEA4102B2F17F4F11D8B7
:105690004FEA4003B3F17F4F0CD80ED14FEAD07CD4
:1056A000B2F17F4F0CEB4C0C0CF1020C08BF4CEB31
:1056B000D17C04E04FF0080C01E04FEAD17C0CEB08
:1056C0004C0324FA03F404F00704B4F1040C06D2EA
:1056D0000EEB840CBDE810404CF0010C6047DFE895
:1056E0000CF0070802024FF00040A0F5800010BD4A
:1056F0000846420018BFD2F1807288BF00F0004017
:1057000010BDFF2141EAD050C005704780F0004035
:1057100090EA010F7FF50BAE81F0004100F08FB8E9
:105720004FEAD051002988BFD1F1FF0240F27580C5
:1057300001F17D014FEA002070B5490840F00040BA
:1057400038BF40080EA2430E040CD25C02FB02F3E9
:1057500004FB03F3C3F14043A3FB0254ED0D45EA00
:10576000442202FB02F3A0FB03546D42C4F1404407
:1057700038BF641EA2FB05350023E2FB0453EA0B8D
:1057800042EA4342A0FB023212F14004A2F121039B
:10579000E40903F07F031F2B32D904EBC15070BD25
:1057A000FEFAF7F3F0ECE9E6E4E1DEDCD9D7D4D297
:1057B000D0CECCCAC8C6C4C2C1BFBDBCBAB9B7B6C8
:1057C000B4B3B2B0AFAEACABAAA9A8A7A6A4A3A22B
:1057D000A1A09F9E9E9D9C9B9A9998979796959421
:1057E0009393929190908F8E8E8D8C8C8B8A8A89D8
:1057F0008988878786868584848383828281818065
:1058000004FB04F6B6EB004603D5E64248BF641C31
:10581000C3E7A64258BF641CBFE711F0FF0F02D1D7
:1058200000F00040704710B5FFF725FF7FDBFFBE9B
:1058300090EA010F48BF81F000413FF578AD421A70
:1058400004D882F00042A0EB020011444FEAD0528B
:105850004FF07F4C1CEA410FA2EBD15318BF9CEADA
:10586000026F4AD04FF0004C4CEA00204CEA012174
:1058700021FA03FCB0EB0C0C0FD412F0FE0F36D063
:105880005FEA4C001DD5001240EBC25038BF704794
:105890001CF03F0F18BF70470BE0A2F101025FEA56
:1058A0001C2040EBC25038BF70471CF07F0F18BF60
:1058B0007047C3F12003994014BF401E20F001003F
:1058C000704780084FEA122308BF7047B0FA80FC87
:1058D000A2EB0C02CCF1280C60FA0CF093EA122F28
:1058E00004BF00EBC25070474FEAC3707047130A01
:1058F0005FEADC1008BF7047F6E79CEA026F04D04D
:1059000010EA5C0F08BF0020704710B5FFF7B3FE28
:1059100040DFF63E81F000407047FAF7B2BD0CF070
:105920000F03092B08BF082000F07F800A2B0BD043
:10593000082B18BF704708BF1CF0400F0AD04FF06B
:1059400000004FF0000170471CF0400F18BF4FF0EF
:10595000004070471CF0100F08D020F0704300F09A
:105960007F4242EAD3014FEA4370704700F0604043
:1059700021F07F4242EA000201F07F4040EA72706B
:1059800070474FF0FF0C4CF4E06C1CEA11531CBF45
:105990009CEA030C9445C2BFDA4201EB0251704706
:1059A000002B0DD0BCF1000F0FD0002A01F00041F8
:1059B000A4BF41F0E04141F07F614FF0000070472B
:1059C00001F000414FF00000704750EA01334FF002
:1059D0009B0C18BF4CF0806C7EF4F8AF70474FF012
:1059E000FF0212EAD0521CBF92F0FF038B42C2BFEB
:1059F000D14200EBC1507047002A0AD0002B0BD0D7
:105A0000002900F00040A4BF40F0FE4040F4000038
:105A1000704700F00040704743024FF00B0C18BF76
:105A20004CF0806C7FF4DEAC70471CF4801F11D00A
:105A30001CF4E02F03D06FEACC31490070474FF0DF
:105A40004050EFF3008222F0704242EA000282F3FB
:105A5000008870474FF000007047020304050607F6
:105A600008090A0B0C0D0E0F1010010200000000B7
:105A700000000000010203040607080900000000FE
:105A800001020304000000004FBB610567ACDD3F6D
:105A9000182D4454FB21E93F9BF681D20B73EF3F55
:105AA000182D4454FB21F93FE2652F227F2B7A3CCD
:105AB000075C143326A6813CBDCBF07A8807703C86
:105AC000075C143326A6913CC4EB98999999C9BFF9
:105AD000711623FEC671BCBF6D9A74AFF2B0B3BF2E
