:020000040800F2
:10000000A8080020A1010008993000088D2E0008E2
:1000100095300008C1110008B13800080000000048
:10002000000000000000000000000000C9300008CF
:1000300011120008000000009D300008CB300008BD
:10004000BB010008BB010008BB010008BB010008A0
:10005000BB010008BB010008BB010008BB01000890
:10006000BB010008BB010008BB010008BB01000880
:10007000BB010008BB010008C5110008D51100082C
:10008000BB010008BB010008BB010008BB01000860
:10009000BB010008BB010008BB010008BB01000850
:1000A000BB010008BB010008BB010008BB01000840
:1000B000BB0100083D310008BB010008BB0100087E
:1000C000BB010008BB010008BB010008BB01000820
:1000D000BB01000841380008BB010008BB01000853
:1000E000BB010008BB010008BB01000800F002F8DA
:1000F00000F047F80AA090E8000C82448344AAF17B
:100100000107DA4501D100F03CF8AFF2090EBAE878
:100110000F0013F0010F18BFFB1A43F0010318473B
:10012000A4530000C4530000103A24BF78C878C11B
:10013000FAD8520724BF30C830C144BF04680C60ED
:10014000704700000023002400250026103A28BF35
:1001500078C1FBD8520728BF30C148BF0B60704739
:10016000662905F06180002070471FB500F0D2FAC3
:1001700004000020002104F01BFBE0601FBD10B54F
:1001800010BD00F0E7FB1146FFF7EFFF03F0ECFEB8
:1001900000F005FC03B4FFF7F2FF03BC03F020FC02
:1001A0000948804709480047FEE7FEE7FEE7FEE70B
:1001B000FEE7FEE7FEE7FEE7FEE7FEE70448054947
:1001C000054A064B7047000039310008ED00000871
:1001D000A8020020A8080020A8040020A8040020ED
:1001E000704700000FB4044910B503AA029800F04C
:1001F0007FFA10BC5DF814FB640000202DE9F0418B
:100200000E460446002020622046E168884730B34D
:10021000252805D0D4E901219047206A401CF2E747
:10022000E168204600278847050018D0A5F1410065
:10023000192802D820354FF4006732462946204657
:100240002760FFF78DFF40B1012804D0F61D26F08E
:1002500007060836D8E7361DD6E72846DAE7206ACB
:10026000BDE8F0814FF0000200B513469446964673
:10027000203922BFA0E80C50A0E80C50B1F12001B9
:10028000BFF4F7AF090728BFA0E80C5048BF0CC067
:100290005DF804EB890028BF40F8042B08BF7047C5
:1002A00048BF20F8022B11F0804F18BF00F8012B37
:1002B0007047704770477047704710B500F02EFACE
:1002C000006810BD10B5044600F028FA046010BDA7
:1002D00070472DE9FF4F0C461E464FF0FF378BB09D
:1002E000D2E90001DDF860800A908A46C1F30A5520
:1002F00005B93D46002108464FF00000BAF1000F55
:1003000000F4400005DA00EB80004FF4400101EA00
:1003100050004FEA9059B9F1010F00DDB9460A9833
:1003200050EA4A000ED044F61050A5F2FF3545437E
:100330002F14B8F1000F1ED07542291E1EDDC9F121
:1003400000021CE0B8F1010F4FF0000001D0302195
:1003500003E0F24305E02154401CB042FBDB304691
:100360000022002121540B99C1F80880C1E9002026
:100370000FB0BDE8F08FBD1B6D1CDEE74A4600DA0A
:10038000694206A800F06CFA06AB93E8070003ABDD
:1003900083E8070050460A9900F04AFB8DE8070001
:1003A000A0F500501F3800900398002D0ADD42F29E
:1003B0001F014A460844002303A90390684600F041
:1003C000B3FD09E0A0F500504A461F38002303A9F9
:1003D0000390684600F0BDFD8DE807000004000CA6
:1003E00003D04FF0FF30410800E01046B8F1000F95
:1003F00003D00022009215461EE0751E05D400F0C1
:1004000091F9303262556D1EF9D5B3460122084389
:1004100002D000227F1C04E02078302801D1002285
:100420007F1E002A099784D01DE0112D07DA00F005
:1004300079F9303262556D1C50EA0102F5D108435A
:1004400002D00098C8B10EE00021681E05E0235CD0
:10045000625C63542254401E491C8142F7DBAB4668
:10046000A81B401E0990002004F80B000B98099A65
:10047000C0F80880C0E9002B7AE711264FF0000889
:1004800057E72DE9F04F88460446D21D22F00701B8
:1004900091B0D1E90001CDE90A0103F00BFA02465F
:1004A0000B98C00F01D02D2007E02068810701D5EF
:1004B0002B2002E0202101EAC000032A099001D08C
:1004C000072A05DB03464146204600F089F90BE187
:1004D0002078800601D5E06900E00620B8F1650FBC
:1004E000814606D0B8F1660F18D0B8F1670F70D109
:1004F00031E00020B9F1110F009001DB112301E080
:1005000009F101030AAA01A90CA8FFF7E2FEDDE93F
:100510000C70002609F10105834647E001204B4697
:1005200000904FF000470AAA01A90CA8FFF7D1FEDE
:10053000DDE90DB00C995D46002610B909F1010006
:100540000D18B9EB050003D4C0F1FF3609F1010520
:10055000A5EB09002BE0B9F1010F01DA4FF0010919
:100560000020B9F1110F0090484601DD112300E091
:1005700003460AAA01A90CA8FFF7ABFEDDE90C703F
:100580004D4600268346207800070AD4AB4500DAA2
:100590005D4601A8012D04DD411911F8011C302927
:1005A00007D04F4502DA17F1040F04DA0120824622
:1005B0000FE06D1EEEE7002F02DCED1B3E4403E072
:1005C000781CA84200DD7D1CB81B00F1010A4FF029
:1005D00000472078000703D4AA4501DB4FF0FF3A1B
:1005E0000021B7F1004F0DF143088DF8431024D0DE
:1005F00002202B23002F01DA7F422D230A21021E25
:10060000A0F1010000DC5FB197FBF1FC97FBF1F278
:1006100001FB1C7C17460CF1300C08F801CDEEE70D
:10062000A8F1010003702188090501D5452100E0EA
:100630006521A0F1010800F8011C09980FA9A1EBA0
:100640000807FF1D00B10120411901EBEA70A16903
:100650003844081A401EA0612078C00602D4204603
:10066000AFF30080099828B1D4E901219047206AAE
:10067000401C20622078C00622D52046AFF30080BF
:100680001EE0002E04DBB34502DD01A8805D00E022
:100690003020D4E901219047206A401C2062761C5A
:1006A000AAF101005FEA000A0AD100F033F8C0683D
:1006B0000168405CD4E901219047206A401C206217
:1006C000281EA5F10105DCDC07E0D4E9012118F8BA
:1006D000010B9047206A401C2062381EA7F10107D9
:1006E000F3DC2046AFF30080032011B041E60000A8
:1006F000074B70B50D467B4400F05FF80446284672
:1007000000F020F910B14FF0FF3070BD204670BDF1
:1007100053380000004870476802002000487047C6
:100720004802002030B5B0F10A024FEA900E71F194
:1007300000034EEA817EB0EB0E0061EB91014FEABF
:10074000101E4EEA017E10EB0E0041EB11114FEA34
:10075000102E4EEA016E10EB0E0041EB11214FEA14
:10076000104E4EEA014E10EB0E0041EB11414018C5
:1007700041F100014FEAD00040EA41704FEAD10157
:1007800010EB80054FEA810444EA907444EB0104C5
:100790006D1944EB0404521BA3414FF0000348BF02
:1007A0000A3200D530BD401C41F1000130BD0000CF
:1007B00001694A1C02610878704700B58FB0CDE925
:1007C00001310021059105497944CDE90310114615
:1007D0006846FFF713FD0FB000BD0000E5FFFFFF07
:1007E0002DE9F0411F46044603260168072A01F45B
:1007F000006004DB08B116A505E016A503E008B10A
:1008000015A500E015A521F010002060A069C01E0C
:10081000A0610FB1401EA0612046AFF300804FB130
:10082000D4E9012138469047206A401C2062C01C50
:10083000206206E0206AFAE7D4E9012115F8010BED
:100840009047761EF8D22046AFF30080BDE8F081D5
:100850004E414E006E616E00494E4600696E660064
:100860002DE9F047814616468AB0354878440DC8D0
:100870008DE80D0032487844801C03AC0DC884E834
:100880000D0041F69B300844372190FBF1F290FBBC
:10089000F1F5A5F1800501FB12041B3C02D5644271
:1008A000012000E00020DFF898A080460027FA44ED
:1008B000AAF1BE0A0EE0E0070AD03246684607EB0E
:1008C000470101230AEB810100F043FB8DE807009B
:1008D00064107F1C002CEED1194F7F44AE3F19E00D
:1008E000E80715D007EB04100DF1180A90E80E0088
:1008F0008AE80E00C068F04201D19819089032468B
:10090000012306A903A800F024FB03AB83E807003A
:100910006D10641C002DE3D14FF00103324669468F
:10092000B8F1000F03A802D000F0FEFA01E000F0D9
:1009300010FBC9E90001C9F808200AB0BDE8F0873A
:100940003C4C0000007B00F080007047004870477E
:10095000480200207546FFF7F9FFAE4605006946DC
:10096000534620F00700854618B020B5FFF726FC57
:10097000BDE820404FF000064FF000074FF00008A0
:100980004FF0000B21F00701AC46ACE8C009ACE821
:10099000C009ACE8C009ACE8C0098D46704710B585
:1009A0000446AFF300802046BDE81040FFF7F2BBDD
:1009B0004FF0013C50F8042B51F8043B9A4221D1EE
:1009C000A2EB0C03934313EACC1317D150F8042B7A
:1009D00051F8043B9A4215D1A2EB0C03934313EA5E
:1009E000CC130BD150F8042B51F8043B9A4209D197
:1009F000A2EB0C03934313EACC13DBD04FF00000BF
:100A0000704700BFD01A01BAB1FA81F101F01801A4
:100A100022FA01F0CB40C1F12001DBB2C0B2C01A12
:100A20002CFA01F3D11A914311EAC311E6D17047B0
:100A30005FEA400C08BF91F0000F4FEA8C234FEAA9
:100A4000C12243EA51514FEA1C5018BF00F5F04053
:100A50004FEA300018BF41F000415FEA6C5C00F0E3
:100A60002980BCF1FF3F08BF40F080407047130C65
:100A700006BF12044FF0100C4FF0000C130E04BF11
:100A800012020CF1080C130F04BF12010CF1040C3C
:100A9000930F04BF92000CF1020CD30F04BF52005D
:100AA0000CF1010C11464FF00002A0F11F00A0EB69
:100AB0000C00704711F0004F08BF704731F0004143
:100AC0003FF4D5AF0B0C06BF09044FF0100C4FF0EC
:100AD000000C0B0E04BF09020CF1080C0B0F04BF35
:100AE00009010CF1040C8B0F04BF89000CF1020CFE
:100AF000CB0F04BF49000CF1010CCCF12003A0EB9B
:100B00000C0022FA03F302FA0CF241EA030100F1AD
:100B10000100704720F07F4C80EA030023F07F47FC
:100B2000ACEB070303F57C5300F0004003F1FF0337
:100B30002DE980494FEA154B09B44FEA144325EAE1
:100B40000B4E24EA03480FF2042606EB132749084C
:100B50003E785FEA320203FB0667C7F5000707FB32
:100B600006F64FEA54374FEAD64606F1020607FB6F
:100B7000066CCCF1005C4FEA1C472CEA074C07FBE3
:100B800006F40CFB06F504EB15464FEA961634BF47
:100B900000204FF000404FEAD13706FB07FC4FEA38
:100BA0001C4C0CFB0BF7D21B03FB0CF761EB070192
:100BB0000CFB0EF7B0EB074072EB17420CFB08F78B
:100BC00034BFA2EB0742B2EB074261EB17414FEA99
:100BD0000C444FEA910706FB07FC4FEA1C4C0CFB48
:100BE0000BF7B0EBC74072EB573203FB0CF734BF87
:100BF000A2EBC742B2EBC74261EB57310CFB0EF7D9
:100C0000B0EBC70072EB57720CFB08F734BFA2EBD6
:100C1000C702B2EBC70261EB5771039F4FEA8161D4
:100C200041EA921104EBCC044FEAD1374FEA8262D9
:100C300006FB07FC42EA90124FEA80604FEA1C4C28
:100C40000CFB0BF7D21B03FB0CF761EB07010CFB52
:100C50000EF7B0EB074072EB17420CFB08F734BFFE
:100C6000A2EB0742B2EB074261EB17414FEA8C550A
:100C70004FEA910704EB9C2406FB07FC4FEA1C4C4F
:100C80000CFB0BF7B0EBC74072EB573203FB0CF7D2
:100C900034BFA2EBC742B2EBC74261EB57310CFB4A
:100CA0000EF7B0EBC70072EB57720CFB08F734BFBE
:100CB000A2EBC702B2EBC70261EB577115EB4C25F3
:100CC0004FEA816141EA92114FEA82624FEAD137DD
:100CD00042EA901206FB07FC44F100044FEA8060F0
:100CE0004FEA1C4C0CFB0BF7D21B03FB0CF761EB20
:100CF00007010CFB0EF7B0EB074072EB17420CFB41
:100D000008F734BFA2EB0742B2EB074261EB174191
:100D100015EB1C154FEA813141EA92414FEA8232CC
:100D200042EA90424FEA80304FEA0C7644F10004E8
:100D300048EA03434EEA0B484FF0000EB2EB080CB2
:100D400071EB030724BF624639464EEB0E0E4FF09F
:100D5000000B0018524149414BEB0B0BB2EB080C56
:100D600071EB03077BF1000B24BF624639464EEB63
:100D70000E0E4FF0000B0018524149414BEB0B0B8C
:100D8000B2EB080C71EB03077BF1000B24BF62464A
:100D900039464EEB0E0E51EA020718BF46F0010627
:100DA00016EB0E7655F1000254F1000103D5BDE8B3
:100DB0008901BDE80088BDE88901BDE80048B61991
:100DC000524141EB0101A3F10103704780807F7E16
:100DD0007D7C7B7A797877767675747372717170B1
:100DE0006F6E6E6D6C6C6B6A6A6968686766666563
:100DF0006464636362616160605F5F5E5E5D5D5CF1
:100E00005C5B5B5A5A595958585757565655555561
:100E10005454535352525251515050504F4F4F4EC1
:100E20004E4D4D4D4C4C4C4B4B4B4A4A4A4949490F
:100E30004848484747474746464645454544444451
:100E4000444343434342424242414141002B9C467A
:100E500030D477002BD01CB54FEA370703B44FF0DE
:100E600010004FF01001BAF1000F06D0BCF1000FD6
:100E7000DCBF40F0080040F008014FF000000FBC5C
:100E8000BDE810400BF1010BBBF1010F08BF5FEA99
:100E9000170722BF12F1010211F101014FF00041C9
:100EA00043F1000300F0004043EA00007047F9D32B
:100EB0005708D0E746EA064613F1400F4FEA1646B8
:100EC0001FDD13F1200FDFBF16430A460021203338
:100ED0005B42BED0C3F1200746EA064602FA07F796
:100EE0004FEA164646EA0706C3F1200722FA03F244
:100EF00001FA07F721FA03F14FF0000342EA070273
:100F0000A7E746EA020646EA06464FEA164646EADA
:100F10000106BCBF46EA0646360C4FF000034FF010
:100F200000024FF0000194E72DE9804C9A46934669
:100F300070B491E8380007C831EA400C48BF34EA81
:100F4000430C03D5FFF7E6FDFFF780FFF0BCBDE8DB
:100F5000008C2DE9804C9A46934670B491E8380095
:100F600007C810F0804F08BF13F0804F03D100F086
:100F700005F8FFF76BFFF0BCBDE8008C20F07F4761
:100F800080EA030023F07F4C07EB0C03A3F57C53AE
:100F900000F00040A3F1FE0392F0000F00F0B380D8
:100FA00095F0000F00F077802DE901494FEA1140DC
:100FB0004FEA144621EA004800FB06FC24EA0647F3
:100FC00008FB06F607FB08F800FB07F718EB0648D6
:100FD0004CEB164C4FEA124B18EB07484FEA1546FC
:100FE0004CEB174022EA0B4E0BFB06FC25EA0647AA
:100FF0000EFB06F607FB0EFE0BFB07F71EEB064E7D
:101000004CEB164C4FF000061EEB074E4CEB174B0B
:1010100018EB0B0840F1000018EB0E0B58EB000822
:1010200040F100008F1A4FF000013CBFC943661B1E
:1010300014BFB5EB040C00213CBFC943F61B4FEABB
:1010400017444EEA8E0E27EA04454FEA1C4704FB7C
:1010500007622CEA074C05FB07F70CFB05F604FBBF
:101060000CFC16EB074642EB174216EB0C4642EB24
:101070001C421BEB060658EB0202414146EA9E0663
:1010800001D5BDE80189B619524141EB0101A3F137
:101090000103BDE801894FEA14454FEA114724EAEC
:1010A000054621EA074C05FB07F406FB07F70CFB96
:1010B00006F105FB0CFC11EB074144EB17444FEA2A
:1010C000124711EB0C4144EB1C4422EA074C05FB90
:1010D00007F206FB07F70CFB06F605FB0CFC16EB0C
:1010E000074642EB174216EB0C4642EB1C456A18CA
:1010F00054F1000148BF7047B619524141EB01015C
:10110000A3F10103704795F0000F37D04FEA114269
:101110004FEA144721EA024624EA074C02FB07F192
:1011200006FB07F70CFB06F402FB0CFC14EB074470
:1011300041EB17414FEA154714EB0C4441EB1C41BE
:1011400025EA074C02FB07F506FB07F70CFB06F642
:1011500002FB0CFC16EB074645EB174516EB0C465D
:1011600045EB1C42121951F1000148BF7047B619F6
:10117000524141EB0101A3F1010370474FEA1445CD
:101180004FEA114724EA054621EA074C05FB07F11F
:1011900006FB07F70CFB06F24FF0000605FB0CFC04
:1011A00012EB074241EB174112EB0C4251EB1C4191
:1011B00048BF7047921841EB0101A3F1010370474A
:1011C00000BFFEE710B5024800F0AAF810BD00000D
:1011D000C001002010B5024800F0A2F810BD0000C8
:1011E0000402002030B590F840500124AC40C56B9B
:1011F0006C60046863604468102C04D10468A260C9
:101200000468E16003E00468A1600468E26030BD46
:10121000704772B600BFFEE70146002291F8210038
:10122000022808D00420886300BF002081F8200035
:1012300000BF012070470868006820F00E000B68AE
:1012400018600868006820F001000B68186091F8C9
:10125000403001209840CB6B5860012081F821007C
:1012600000BF002081F8200000BF1046E2E7000028
:1012700070B50446002594F82100022803D004200C
:10128000A063012548E02068006820F00E00216876
:1012900008602068006820F00100216808601F498C
:1012A0002068884201D1012026E01C4914312068C1
:1012B000884201D110201FE0184928312068884257
:1012C00001D1801518E015493C312068884201D1D0
:1012D000801411E0114950312068884202D14FF446
:1012E000803009E00D4964312068884202D14FF412
:1012F000801001E04FF080700849083948600120F3
:1013000084F8210000BF002084F8200000BF606B3B
:1013100010B12046616B8847284670BD0800024026
:1013200070B50446E06B05682068066894F84010C4
:10133000042088402840002846D006F004000028F9
:1013400042D02068006800F0200028B920680068BA
:1013500020F004002168086057492068884201D1C4
:10136000042027E0544914312068884201D14020EC
:1013700020E0514928312068884201D1001519E048
:101380004D493C312068884202D14FF4804011E041
:10139000494950312068884202D14FF4802009E049
:1013A000454964312068884202D14FF4800001E051
:1013B0004FF08060404908394860E06A00287AD0E0
:1013C0002046E16A884776E094F840100220884081
:1013D0002840A0B306F0020088B32068006800F03F
:1013E000200040B92068006820F00A0021680860E9
:1013F000012084F8210030492068884201D1022070
:1014000028E02D4914312068884201D1202021E0B4
:10141000294928312068884201D140151AE026491F
:101420003C312068884202D14FF4005012E022493A
:1014300050312068884203D14FF400300AE017E0B1
:101440001D4964312068884202D14FF4001001E048
:101450004FF0007018490839486000BF002084F838
:10146000200000BFA06A30B32046A16A884722E06E
:1014700094F84010082088402840E0B106F00800A9
:10148000C8B12068006820F00E002168086094F858
:10149000401001208840E16B48600120A06384F87F
:1014A000210000BF002084F8200000BF206B10B195
:1014B0002046216B884770BD08000240014600228B
:1014C00009B901207047164B0868C01A1423B0FBF5
:1014D000F3F08000086412480838C863022081F8DD
:1014E00021000868026843F6F0708243D1E90103E5
:1014F0001843CB6818430B6918434B6918438B6931
:101500001843CB69184302430868026000208863CF
:10151000012081F82100002081F8200000BFD1E7E0
:10152000080002402DE9F04104460D4616461F46CC
:101530004FF0000800BF94F82000012802D10220DB
:10154000BDE8F081012084F8200000BF94F821005C
:1015500001282CD1022084F821000020A0632068FB
:10156000006820F00100216808603B4632462946A9
:101570002046FFF737FEE06A30B12068006840F08F
:101580000E00216808600BE02068006820F004006D
:10159000216808602068006840F00A00216808603F
:1015A0002068006840F001002168086006E000BF84
:1015B000002084F8200000BF4FF002084046BFE73B
:1015C00070B5044600F0B0F906462546681C10B117
:1015D00004480078054400BF00F0A6F9801BA8422B
:1015E000FAD370BD5C0000202DE9F84703460022C5
:1015F00094466EE14FF0010808FA02F4D1F8008039
:1016000008EA0400A0427DD1DFF8DCA2D1F8048012
:10161000A8EB0A09D0453AD014DCB8F1030F50D03A
:1016200009DCB8F1000F31D0B8F1010F1CD0B8F1CE
:10163000020F49D120E0B8F1110F18D0B8F1120F04
:1016400042D11EE0B9F5881F25D006DCB9F5803FF0
:1016500020D0B9F5801F37D11AE0B9F5001F18D096
:10166000B9F5041F30D117E0D1F80CC02DE0D1F846
:101670000C8008F1040C28E0D1F80C8008F1080C6B
:1016800023E0D1F80C8008F10C0C1EE000BF00BF75
:1016900000BF00BF00BF00BFD1F80880B8F1000F45
:1016A00002D14FF0040C0BE0D1F80880B8F1010F23
:1016B00003D14FF0080C1C6102E04FF0080C5C6194
:1016C00003E04FF0000C00E000BF00BFFF2801D88E
:1016D000984601E003F104084646FF2802D84FEA85
:1016E000820803E0A2F108084FEA88084746D6F8C6
:1016F00000804FF00F0909FA07F928EA09080CFAE7
:1017000007F900E088E048EA0908C6F80080D1F847
:10171000048008F08058B8F1805F7DD100BFDFF809
:10172000CC81D8F8188048F00108DFF8C091C9F8DA
:101730001880C846D8F8188008F00108CDF8008055
:1017400000BF00BF4FEAB9384FEA920958F8295054
:101750004FEA82784FEA18794FF00F0808FA09F833
:1017600025EA0805DFF88881434502D14FF00008DB
:1017700016E0DFF88081434502D14FF001080FE009
:10178000DFF87481434502D14FF0020808E0DFF82A
:101790006C81434502D14FF0030801E04FF004088B
:1017A0004FEA82794FEA197908FA09F848EA0505FB
:1017B000DFF84C814FEA920948F82950D1F80480AB
:1017C00008F48018B8F5801F0AD1DFF83881D8F8FE
:1017D000008048EA0008DFF82C91C9F8008009E091
:1017E000DFF82081D8F8008028EA0008DFF814919B
:1017F000C9F80080D1F8048008F40018B8F5001F7B
:1018000010D1DFF8008108F10408D8F8008048EA18
:101810000008DFF8F09000E05AE009F10409C9F887
:1018200000800DE0DFF8DC8008F10408D8F80080C3
:1018300028EA0008DFF8CC9009F10409C9F8008013
:10184000D1F8048008F40038B8F5003F0ED1DFF875
:10185000B480A8F10408D8F8008048EA0008DFF84E
:10186000A490A9F10409C9F800800DE0DFF8948084
:10187000A8F10408D8F8008028EA0008DFF884906E
:10188000A9F10409C9F80080D1F8048008F480386F
:10189000B8F5803F0ED1DFF86C80A8F10808D8F8C1
:1018A000008048EA0008DFF85C90A9F10809C9F84F
:1018B00000800DE0DFF84C80A8F10808D8F800801F
:1018C00028EA0008DFF83C90A9F10809C9F800806F
:1018D000521CD1F8008028FA02F8B8F1000F7FF40A
:1018E00089AEBDE8F887000000001110001002402A
:1018F00000080140000C01400010014000140140AC
:10190000080001400804014010B5C26821EA020342
:1019100002EA010443EA0443036110BD0AB1016114
:1019200001E00B0403617047014800687047000044
:10193000540000200348006803490978084401491D
:1019400008607047540000205C00002010B5084873
:10195000006840F0100006490860032000F0A8F875
:101960000F2000F007F800F02BF8002010BD000059
:101970000020024070B504460E4800784FF47A719A
:10198000B1FBF0F00C490968B1FBF0F5284600F016
:10199000F9FB08B1012070BD102C07D200222146AE
:1019A000501E00F047F80548046001E00120F2E70E
:1019B0000020F0E75C0000206000002058000020BC
:1019C00008B500BF1148806940F001000F498861E7
:1019D0000846806900F00100009000BF00BF00BF12
:1019E0000846C06940F08050C8610846C06900F0F0
:1019F0008050009000BF00BF00BF0549486820F03C
:101A0000E06040F00070486000BF08BD0010024078
:101A10000000014001460846002809DB00F01F03D2
:101A200001229A4043099B0003F1E023C3F80021FF
:101A300000BF70472DE9F05F80460D46164600272F
:101A400001F04CFF074639462A46334601F00700AD
:101A5000C0F1070ABAF1040F02D94FF0040A01E0FD
:101A6000C0F1070AD14600F1040ABAF1070F02D209
:101A70004FF0000A01E0A0F1030AD4464FF0010A3A
:101A80000AFA09FAAAF1010A0AEA020A0AFA0CFA9F
:101A90004FF0010B0BFA0CFBABF1010B0BEA030B44
:101AA0004AEA0B042146404601F020FFBDE8F09FC2
:101AB00000BF00F00702064B19684FF6FF031940FC
:101AC000044B0B4343EA0221014B196000BF7047EE
:101AD0000CED00E00000FA0570B504460D460CB9A7
:101AE000012070BD5A48006800F00700A8420ED2DD
:101AF0005748006820F00700284355490860084609
:101B0000006800F00700A84201D00120E9E7207832
:101B100000F0020002281DD1207800F00400042803
:101B200005D14C48406840F4E0604A49486020785C
:101B300000F00800082805D14648406840F460508D
:101B4000444948604348406820F0F000A1680843D9
:101B500040494860207800F0010078B360680128AF
:101B600006D13C48006800F4003090B90120B8E785
:101B70006068022806D13748006800F0007040B95C
:101B80000120AEE73348006800F0020008B90120E8
:101B9000A7E73048406820F00300616808432D49FA
:101BA0004860FFF7C1FE064609E0FFF7BDFE801B57
:101BB00041F28831884202D9032092E707E02548A4
:101BC000406800F00C006168B0EB810FEDD1204857
:101BD000006800F00700A8420ED91D48006820F0F8
:101BE000070028431A4908600846006800F007000B
:101BF000A84201D0012074E7207800F004000428F6
:101C000007D11448406820F4E060E16808431149B6
:101C10004860207800F00800082808D10D48406886
:101C200020F46050216940EAC1000A49486000F090
:101C30003FF808494968C1F30311074A515CC8409D
:101C40000649086006480068FFF794FE002048E750
:101C500000200240001002402E53000860000020C7
:101C60005800002001480068704700006000002014
:101C700000B5FFF7F7FF04494968C1F30221034AA1
:101C8000515CC84000BD0000001002403E530008F7
:101C900000B5FFF7E7FF04494968C1F3C221034AD1
:101CA000515CC84000BD0000001002403E530008D7
:101CB00070B500210022002400230020134D696824
:101CC00001F00C05F5B1042D02D0082D19D101E069
:101CD0000F4819E00F4DC1F38346AB5D01F4803529
:101CE00055B10A4D6D68C5F340450B4E725D084D08
:101CF0005D43B5FBF2F402E0084D03FB05F420461A
:101D000002E000BF024800BF00BF70BD00100240EB
:101D100000127A001C5300082C53000800093D00F3
:101D2000F8B504460CB90120F8BD207800F0010098
:101D3000002878D0F848406800F00C0004280CD047
:101D4000F548406800F00C00082811D1F2484068BE
:101D500000F48030B0F5803F0AD1EF48006800F40D
:101D6000003000285FD0606800285CD10120DBE7EC
:101D700000BF6068B0F5803F06D1E748006840F4D6
:101D80008030E549086028E0606858B9E24800689A
:101D900020F48030E04908600846006820F4802084
:101DA00008601AE06068B0F5A02F0BD1DA4800682F
:101DB00040F48020D84908600846006840F480302C
:101DC00008600AE0D448006820F48030D2490860F6
:101DD0000846006820F48020086000BF606888B171
:101DE000FFF7A2FD054606E0FFF79EFD401B6428B5
:101DF00001D9032098E7C848006800F400300028A3
:101E0000F2D010E0FFF790FD054606E0FFF78CFDED
:101E1000401B642801D9032086E7BF48006800F40E
:101E200000300028F2D1207800F00200022857D1BB
:101E3000B948406800F00C0050B1B748406800F065
:101E40000C00082818D1B448406800F4803098B9D4
:101E5000B148006800F0020020B12069012801D0DB
:101E6000012061E7AC48006820F0F800616940EAB1
:101E7000C100A949086033E02069E8B10120A74901
:101E80000860FFF751FD054606E0FFF74DFD401BDA
:101E9000022801D9032047E79F48006800F00200AC
:101EA0000028F2D09C48006820F0F800616940EA00
:101EB000C1009949086013E0002098490860FFF7C5
:101EC00033FD054606E0FFF72FFD401B022801D930
:101ED000032029E79048006800F002000028F2D1B2
:101EE000207800F0080008282DD1A069B8B10120A1
:101EF0008B490860FFF718FD054606E0FFF714FD63
:101F0000401B022801D903200EE78348406A00F0F5
:101F100002000028F2D0012001F0C2F813E00020F6
:101F20007F490860FFF700FD054606E0FFF7FCFC6F
:101F3000401B022801D90320F6E67748406A00F0EA
:101F400002000028F2D1207800F00400042873D1A8
:101F500000277148C06900F0805070B900BF6E481A
:101F6000C06940F080506C49C8610846C06900F003
:101F70008050009000BF00BF01276A48006800F44D
:101F80008070B0B96748006840F4807065490860A7
:101F9000FFF7CAFC054606E0FFF7C6FC401B6428B5
:101FA00001D90320C0E65F48006800F48070002873
:101FB000F2D000BFE068012806D15748006A40F01F
:101FC00001005549086227E0E06858B95248006AA4
:101FD00020F00100504908620846006A20F0040021
:101FE000086219E0E06805280BD14B48006A40F010
:101FF0000400494908620846006A40F0010008628E
:102000000AE04548006A20F001004349086208469A
:10201000006A20F00400086200BFE068A0B1FFF78A
:1020200083FC054609E0FFF77FFC401B41F2883145
:10203000884202D9032077E622E03748006A00F0A0
:1020400002000028EFD012E0FFF76EFC054608E022
:10205000FFF76AFC401B41F28831884201D9032016
:1020600062E62D48006A00F002000028F0D1012F3E
:1020700005D12948C06920F080502749C86100BFB8
:10208000E069C8B32448406800F00C00082860D01C
:10209000E069022848D1002020490866FFF744FC87
:1020A000054606E0FFF740FC401B022801D903204B
:1020B0003AE61948006800F000700028F2D1206A62
:1020C000B0F5803F07D11448406820F40030A16883
:1020D000084311494860D4E9080108430E4949689A
:1020E00021F4741108430C49486001200B4908662B
:1020F000FFF71AFC054607E03DE0FFF715FC401B23
:10210000022801D903200FE60348006800F00070A0
:102110000028F2D02FE000000010024000004242F0
:102120008004424200700040002014490866FFF716
:10213000FBFB054606E0FFF7F7FB401B022801D931
:102140000320F1E50E48006800F000700028F2D18D
:1021500011E0E069012800D1E6E50948466806F487
:102160008031206A814204D106F47011606A814294
:1021700001D00120D8E50020D6E500000000424251
:102180000010024070B504462546681EB0F1807FFD
:1021900001D301200FE0681E4FF0E02148610F21BC
:1021A0004FF0FF3001F0A2FB00204FF0E0218861EA
:1021B00007200861002070BD7047704730B50246A7
:1021C0000B4600BF92F83C00012801D1022030BD2F
:1021D000012082F83C0000BF022082F83D00106818
:1021E00044681068816824F070041868044310681B
:1021F0004460104D1068A8420BD01068B0F1804FB9
:1022000007D00D4D1068A84203D00C4D1068A842AD
:1022100005D121F0800158680143106881600120D8
:1022200082F83D0000BF002082F83C0000BF00BFE4
:10223000CDE70000002C01400004004000080040F1
:1022400010B504460CB9012010BD94F83D0028B922
:10225000002084F83C00204600F026F8022084F894
:102260003D00211D206800F071FF012084F8460028
:1022700000BF84F83E0001213F2001554020015558
:102280004120015500BF00BF012084F842004320D7
:102290000155442001554520015500BF012084F817
:1022A0003D000020D0E7000038B504460D49206805
:1022B000884215D100BF0C48C06940F002000A49AD
:1022C000C8610846C06900F00200009000BF00BF6E
:1022D000002211461D20FFF7ADFB1D20FFF79AFBE2
:1022E00038BD00000004004000100240014691F893
:1022F0003D00012801D001207047022081F83D00F7
:102300000868C06840F001000B68D860124B08688C
:1023100098420BD00868B0F1804F07D00F4B086887
:10232000984203D00E4B086898420CD10868806828
:1023300000F00702062A0CD00868006840F001008F
:102340000B68186005E00868006840F001000B6841
:1023500018600020D0E70000002C0140000400407D
:10236000000800402DE9F04104460D46002700BF5B
:1023700094F83C00012802D10220BDE8F081012040
:1023800084F83C0000BF022084F83D002068866885
:1023900026F0770626F47F46206886602868502855
:1023A00033D00CDC202850D004DC00284BD010287F
:1023B00051D149E0302849D040284CD139E060283B
:1023C0002DD0702807D0B0F5805F03D0B0F5005F46
:1023D00041D10DE041E0D5E902136A68206800F0C0
:1023E000EFFE2068866846F077062068866034E055
:1023F000D5E902136A68206800F0E2FE2068806870
:1024000040F480402168886027E0EA6869682068B5
:1024100000F0EAFE5021206800F0DDFE1DE0EA68D1
:102420006968206800F0F3FE6021206800F0D3FEA8
:1024300013E0EA686968206800F0D6FE4021206851
:1024400000F0C9FE09E000BF00BF00BF2968206896
:1024500000F0C1FE01E0012700BF00BF012084F8A9
:102460003D0000BF002084F83C0000BF384684E7F0
:10247000704710B5044620680069C0F34000D8B129
:102480002068C068C0F34000B0B16FF0020021685E
:102490000861012020772068806900F0030018B1EE
:1024A0002046FFF7E5FF05E0204600F0ADF82046A6
:1024B00000F0ABF80020207720680069C0F38000AE
:1024C000D8B12068C068C0F38000B0B16FF00400DC
:1024D00021680861022020772068806900F440703C
:1024E00018B12046FFF7C4FF05E0204600F08CF845
:1024F000204600F08AF80020207720680069C0F3A9
:10250000C000D8B12068C068C0F3C000B0B16FF09F
:10251000080021680861042020772068C06900F065
:10252000030018B12046FFF7A3FF05E0204600F0A6
:102530006BF8204600F069F80020207720680069D9
:10254000C0F30010D8B12068C068C0F30010B0B16B
:102550006FF0100021680861082020772068C069AA
:1025600000F4407018B12046FFF782FF05E02046D6
:1025700000F04AF8204600F048F800202077206854
:10258000006900F0010058B12068C06800F0010047
:1025900030B16FF0010021680861204600F036F884
:1025A00020680069C0F3C01058B12068C068C0F34B
:1025B000C01030B16FF08000216808612046FFF73D
:1025C000FBFD20680069C0F3801058B12068C06826
:1025D000C0F3801030B16FF04000216808612046E0
:1025E00000F020F920680069C0F3401058B120685D
:1025F000C068C0F3401030B16FF02000216808615E
:102600002046FFF7DAFD10BD7047704710B504464D
:102610007D492068884270D17C480068401C7B4915
:1026200008607B48408B0968884205DD01229102E1
:102630007848FFF773F9E1E07548408B7349096802
:1026400088420BDC71480068B0F5FA6F06DC0022A6
:102650004FF480616F48FFF761F9CFE06B48006885
:10266000B0F5FA6F0DDD6A48808B00F5FA606749B6
:102670000968884205DD0122D1026648FFF74EF95C
:10268000BCE06348808B00F5FA60604909688842C5
:102690000BDC5E480068B0F57A6F06DC00224FF470
:1026A00000615C48FFF73AF9A8E058480068B0F5C7
:1026B0007A6F0DDD5648C08B00F57A605349096882
:1026C000884205DD012211035248FFF727F995E002
:1026D0004F48C08B00F57A604C49096888420DDC90
:1026E0004A48006841F27071884207DC00224FF4CA
:1026F00080514848FFF712F980E084E043480068C1
:1027000041F2707188420CDD4148008C08443F4919
:102710000968884205DD012204213F48FFF7FEF8E1
:102720006CE03B48008C41F27071084437490968FD
:1027300088420ADC35480068B0F5FA5F05DC002203
:1027400004213548FFF7EAF858E030480068B0F552
:10275000FA5F0DDD2E48408C00F5FA502B490968D0
:10276000884205DD012220212C48FFF7D7F845E0FB
:102770002748408C00F5FA502449096888420BDC50
:102780002248006842F21071884205DC00222021B4
:102790002248FFF7C3F831E01C48006842F210718C
:1027A00088420CDD1A48808C084418490968884220
:1027B00005DD012211021948FFF7B0F81EE01448A8
:1027C000808C42F2107108441049096888420CDC80
:1027D0000E48006842F6E061884206DC00224FF4B1
:1027E00080710E48FFF79AF808E00848006842F642
:1027F000E061884202DD0020044908606FF00100BA
:1028000007490968086110BD00040040500000201D
:10281000000000200010014000140140000C0140A5
:10282000300100207047704770B5044600252068CD
:102830004069C0F3C01594F84100212817D1B5B103
:1028400000BF00BF2168143151E8001F21F0800053
:102850002168143141E80002002AF3D100BFA06BC7
:1028600010B1A06BFEF7D8FC204600F0FBFD2068FD
:102870004069C0F3801594F84200222817D1B5B101
:1028800000BF00BF2168143151E8001F21F0400053
:102890002168143141E80002002AF3D100BFE06B47
:1028A00010B1E06BFEF7B8FC204600F095FD00206B
:1028B00070BD70472DE9F84F044620680568206810
:1028C000C668206847694FF00009CA4605F00F093D
:1028D000B9F1000F0AD105F0200038B106F0200050
:1028E00020B1204600F0D1FDBDE8F88FB9F1000F0E
:1028F0007BD007F0010018B906F49070002874D05E
:1029000005F0010030B106F4807018B1606C40F041
:102910000100606405F0040030B107F0010018B157
:10292000606C40F00200606405F0020030B107F016
:10293000010018B1606C40F00400606405F008000C
:1029400048B106F0200010B907F0010018B1606C22
:1029500040F008006064606C002845D005F020005D
:1029600028B106F0200010B1204600F08EFD20684E
:102970004069C0F3801A606C00F0080010B9BAF129
:10298000000F2CD0204600F027FD2068406900F0A1
:10299000400000B300BF00BF2168143151E8001FA0
:1029A00021F040002168143141E80002002AF3D1EF
:1029B00000BFE06B50B17748E16B4863E06BFEF716
:1029C00057FC88B1E06B416B88470DE02046FFF76C
:1029D00070FF09E009E02046FFF76BFF04E02046A6
:1029E000FFF767FF002060647EE7206B012877D146
:1029F00005F01000002873D006F010000028FAD06F
:102A000000BF0020009020680068009020684068A7
:102A1000009000BF00BF2068406900F0400000281F
:102A20005FD0E06B006840681FFA80F8B8F1000FD3
:102A300055D0A08D404552DDA4F82E80E06B806912
:102A4000202843D000BF00BF21680C3151E8001F8F
:102A500021F4807021680C3141E80002002AF3D192
:102A600000BF00BF00BF2168143151E8001F21F0F2
:102A700001002168143141E80002002AF3D100BFAF
:102A800000BF00BF2168143151E8001F21F0400051
:102A90002168143141E80002002AF3D100BF202050
:102AA00084F842000020206300BF00BF21680C3181
:102AB00051E8001F21F0100021680C3141E80002AC
:102AC000002AF3D100BFE06BFEF7A6FB0220606393
:102AD000A08DE28D801A81B22046FFF7A4FE03E7A5
:102AE00042E0A08DE18D401A1FFA80F8E08DD0B34E
:102AF000B8F1000F37D000BF00BF21680C3151E89A
:102B0000001F21F4907021680C3141E80002002A76
:102B1000F3D100BF00BF00BF2168143151E8001F8E
:102B200021F001002168143141E80002002AF3D1AC
:102B300000BF202084F842000020206300BF00BFB7
:102B400021680C3151E8001F21F0100021680C3180
:102B500041E80002002AF3D100BF02206063414631
:102B60002046FFF760FEBFE605F0800030B106F0BA
:102B7000800018B1204600F0E9FDB5E605F0400000
:102B800030B106F0400018B1204600F05BFCABE627
:102B900000BFA9E63732000810B504460CB9012081
:102BA00010BDA06900B100E000BF94F8410028B951
:102BB000002084F84000204600F02AF8242084F801
:102BC00041002068C06820F400502168C860204699
:102BD00000F0DAFC2068006920F490402168086168
:102BE0002068406920F02A00216848612068C06898
:102BF00040F400502168C86000206064202084F800
:102C0000410084F842000020606300BFC8E7000074
:102C100010B586B004460020029003900490059001
:102C200037492068884269D100BF3648806940F43E
:102C30008040344988610846806900F480400190F2
:102C400000BF00BF00BF0846806940F004008861F3
:102C50000846806900F00400019000BF00BF4815DD
:102C60000290022003900320059002A92648FEF757
:102C7000BBFC4FF48060029000200390049002A9F6
:102C80002148FEF7B1FC2148214908601020486026
:102C900000211F4881608021C160002101614161E4
:102CA0008161C161FEF70AFC08B1FEF7B2FA00BF0C
:102CB0001748A063446200BF1448143015490860E7
:102CC000002048600021134881608021C1600021FC
:102CD000016141618161C161FEF7F0FB08B1FEF75E
:102CE00098FA00BF0B48E063446200BF002211461F
:102CF0002520FEF79FFE2520FEF78CFE06B010BDB6
:102D00000038014000100240000801404400024029
:102D1000C00100200402002070B504460D4616468E
:102D200094F8420020280BD105B10EB9012070BDE6
:102D30000020206332462946204600F0A3FCF6E737
:102D40000220F4E7704770472DE9F84F04460E461D
:102D5000174699464FF0000A94F8410020284AD1BE
:102D600006B117B90120BDE8F88F0020606421206A
:102D700084F84100FEF7D8FD8246A784E784A06866
:102D8000B0F5805F04D1206910B90025B04602E09B
:102D900035464FF000081BE05346002280212046B4
:102DA000CDF8009000F002FD08B10320DBE745B943
:102DB000B8F80000C0F308002168486008F1020874
:102DC00003E02878216848606D1CE08C401EE08498
:102DD000E08C0028E0D15346002240212046CDF867
:102DE000009000F0E3FC08B10320BCE7202084F849
:102DF00041000020B7E70220B5E70000F7B5044620
:102E0000154694F84100202836D1019800B10DB93B
:102E10000120FEBD01982062A584E5840020606445
:102E2000212084F841001548A16B88621448A16BE9
:102E3000C8621448A16B08630020A16B486301AE0F
:102E400023681A1D31682B46A06BFEF76BFB6FF0F1
:102E500040002168086000BF00BF2168143151E8BC
:102E6000001F41F080002168143141E80002002A6F
:102E7000F3D100BF0020CCE70220CAE7733300087B
:102E8000CB3300084B3200087047704700BFFEE7A5
:102E900008B500BF0E48406940F001000C49486188
:102EA0000846406900F00100009000BF00BF00220A
:102EB00011460E20FEF7BEFD0E20FEF7ABFD0022F0
:102EC00011460F20FEF7B6FD0F20FEF7A3FD08BD4B
:102ED0000010024000B585B00020019002900390E0
:102EE000049000BF3E48806940F010003C49886172
:102EF0000846806900F01000009000BF00BF00BFCE
:102F00000846806940F0200088610846806900F02A
:102F10002000009000BF00BF00BF0846806940F05D
:102F2000040088610846806900F00400009000BF3A
:102F300000BF00BF0846806940F00800886108466D
:102F4000806900F00800009000BF00BF00224FF42D
:102F5000E0512448FEF7E2FC002204212248FEF75B
:102F6000DDFC00224FF490712048FEF7D7FC0122CF
:102F700051021E48FEF7D2FC4FF4E05001900120B0
:102F80000290002003900220049001A91548FEF74A
:102F90002BFB0420019001200290002003900320CD
:102FA000049001A91048FEF71FFB4FF490700190A8
:102FB00001200290002003900220049001A90B48F8
:102FC000FEF712FB4FF40070019001200290039075
:102FD0000220049001A90548FEF706FB05B000BDDC
:102FE000001002400010014000140140000C01409C
:102FF00000B587B0002003900490059006900190E2
:103000000290144814490860472048600021124883
:1030100081600921C160002101618161FFF710F920
:1030200008B1FEF7F6F84FF48050039003A90A4860
:10303000FFF798F908B1FEF7ECF800200190029034
:1030400001A90548FFF7BAF808B1FEF7E2F807B0A2
:1030500000BD0000000400403001002010B50B4806
:103060000B4908604FF4E130486000210848816056
:10307000C16001610C21416100218161C161FFF7E3
:103080008BFD08B1FEF7C5F810BD00000038014007
:103090007801002000BFFEE700BFFEE77047000098
:1030A00008B508490968C9084FF47A72B1FBF2F112
:1030B0004143009100BF00BF00994A1E00920029C1
:1030C000F9D108BD60000020704710B5FEF732FC52
:1030D00010BD00B58FB0282105A8FDF7C3F8142155
:1030E0006846FDF7BFF80120059000040690002017
:1030F00007900120099002200C90C1030D914FF41C
:10310000E0110E9105A8FEF70BFE08B1FEF781F85D
:103110000F20009002200190002002904FF4806068
:1031200003900020049002216846FEF7D5FC08B108
:10313000FEF76FF80FB000BD7047000010B50248F1
:10314000FFF797F910BD00003001002010B50268AC
:10315000184B984208D0B0F1804F05D0164B9842DA
:1031600002D0164B984203D122F070024B681A43EA
:10317000104B984208D0B0F1804F05D00E4B9842CA
:1031800002D00E4B984203D122F44072CB681A430E
:1031900022F080034C6943EA040202608B68C36238
:1031A0000B688362034B984201D10B6903630123CF
:1031B000436110BD002C01400004004000080040A5
:1031C00030B50C46816821F47F4142EA032525434E
:1031D0002943816030BD0A46816821F0700142F0C8
:1031E000070319438160704730B50B461446026AE5
:1031F000056A25F001050562816921F0F00141EAC7
:10320000041122F00A021A438161026230BD30B516
:103210000B461446026A056A25F0100505628169AD
:1032200021F4704141EA043122F0A00242EA031283
:103230008161026230BD70B505466C6A0020E08590
:10324000E0842046FFF735FB70BD70B506460025CB
:10325000746A20684069C0F3C01594F841002128C1
:1032600005D125B10020E084204600F0FBF820685D
:103270004069C0F3801594F84200222805D125B199
:103280000020E085204600F0A7F8606C40F01000B8
:1032900060642046FFF70DFB70BD70B505466C6A93
:1032A0002868006800F02000002842D1E08500BFB7
:1032B00000BF21680C3151E8001F21F480702168A3
:1032C0000C3141E80002002AF3D100BF00BF00BF6B
:1032D0002168143151E8001F21F0010021681431E8
:1032E00041E80002002AF3D100BF00BF00BF2168FF
:1032F000143151E8001F21F040002168143141E8E9
:103300000002002AF3D100BF202084F84200206B85
:1033100001280ED100BF00BF21680C3151E8001F09
:1033200021F0100021680C3141E80002002AF3D19D
:1033300000BF00206063206B012804D1A18D2046CE
:10334000FFF771FA02E02046FFF7FCFC70BD70B594
:1033500005466C6A01206063206B012805D1A08DB1
:1033600041082046FFF75FFA02E02046FFF7EBFC3A
:1033700070BD70B505466C6A2868006800F02000D2
:10338000F8B90020E08400BF00BF2168143151E883
:10339000001F21F080002168143141E80002002A5A
:1033A000F3D100BF00BF00BF21680C3151E8001FFE
:1033B00041F0400021680C3141E80002002AF3D1BD
:1033C00002E02046FFF760FD70BD70B50446656AF7
:1033D0002846FFF75AFD70BD00BF00BF02680C32DF
:1033E00052E8002F22F4907102680C3242E8001378
:1033F000002BF3D100BF00BF00BF0268143252E8B7
:10340000002F22F001010268143242E80013002B61
:10341000F3D100BF016B01290ED100BF00BF0268CC
:103420000C3252E8002F22F0100102680C3242E800
:103430000013002BF3D100BF202180F8421000219F
:103440000163704710B504462068C06820F0400052
:103450002168C860202084F841002046FFF714FD51
:10346000002010BD00BF00BF02680C3252E8002FE0
:1034700022F0C00102680C3242E80013002BF3D1A5
:1034800000BF202180F841107047F8B5044694F839
:103490004200222875D1A068B0F5805F0CD1206968
:1034A00050B90025A66A20684068C0F30800308043
:1034B000A06A801CA06215E0A56A0026A068B0F58D
:1034C000805F03D0A06828B9206918B920684068D7
:1034D000287004E02068406800F07F002870A06A2F
:1034E000401CA062E08D401E80B2E085002846D1DD
:1034F0002068C06820F020002168C8602068C0688B
:1035000020F480702168C8602068406920F00100C4
:1035100021684861202084F8420000206063206B0D
:10352000012826D10020206300BF00BF21680C3194
:1035300051E8001F21F0100021680C3141E8000221
:10354000002AF3D100BF2068006800F010001028A6
:103550000AD100BF00200090206800680090206819
:103560004068009000BF00BFA18D2046FFF75BF9C7
:1035700002E02046FFF7E6FB0020F8BD01E0002056
:10358000FBE70220F9E7000070B5044621680969ED
:1035900021F44051E2681143226811612269A16857
:1035A0001143626941EA02052168C96841F20C626F
:1035B000914329432268D1602168496921F440710F
:1035C000A2691143226851612D4A2168914202D1BA
:1035D000FEF75EFB01E0FEF74BFB00EBC00101EBE9
:1035E000001162689200B1FBF2F100EBC00202EB45
:1035F000001263689B00B2FBF3F26423B2FBF3F2A8
:1036000002EBC20303EB0212A1EB8201322202EBB6
:1036100001116422B1FBF2F101F0F00100EBC002F4
:1036200002EB001263689B00B2FBF3F26423B2FB6F
:10363000F3F201EB021200EBC00101EB0011636831
:103640009B00B1FBF3F100EBC00303EB00136668D2
:10365000B600B3FBF6F36426B3FBF6F303EBC30645
:1036600006EB0313A1EB8301322303EB0111642367
:10367000B1FBF3F101F00F0111442268916070BDBC
:103680000038014077B581B0044615460298A06223
:10369000A58500206064222084F842002848E16B60
:1036A00088622848E16BC8622748E16B0863002004
:1036B000E16B486302AE32682368191D2B46E06B4C
:1036C000FDF730FF00BF00200090206800680090E8
:1036D00020684068009000BF00BF206970B100BF43
:1036E00000BF21680C3151E8001F41F4807021684F
:1036F0000C3141E80002002AF3D100BF00BF00BF37
:103700002168143151E8001F41F001002168143193
:1037100041E80002002AF3D100BF00BF00BF2168CA
:10372000143151E8001F41F040002168143141E894
:103730000002002AF3D100BF002004B070BD0000D9
:103740009B3200084F3300084B320008014691F8C5
:103750004100212828D18868B0F5805F0BD1086925
:1037600048B90A6A1088C0F308000B685860086AF4
:10377000801C086205E00B6A581C086218780B6808
:103780005860C88C401E80B2C88458B90868C068A8
:1037900020F080000B68D8600868C06840F04000E6
:1037A0000B68D860002070470220FCE72DE9F0414B
:1037B00004460D4617469846069E34E0701C88B3B2
:1037C0002EB1FEF7B1F8A0EB0800B0422BD900BF34
:1037D00000BF21680C3151E8001F21F4D07021682E
:1037E0000C3141E80002002AF3D100BF00BF00BF46
:1037F0002168143151E8001F21F0010021681431C3
:1038000041E80002002AF3D100BF202084F84100E3
:1038100084F8420000BF002084F8400000BF03206D
:10382000BDE8F081FFE7206800682840A84201D188
:10383000012000E00020B842C0D00020F0E70000E6
:1038400038B51748FFF736F8154800680068C0F328
:10385000001020B300BF00200090114800680068ED
:1038600000900F4800684068009000BF00BF012032
:103870000C4908700A48FEF7D7FF0B4800684068FB
:10388000C5B2C5F16400C4B2224608490448FFF736
:10389000B5FA642205490248FFF73EFA00BF38BD79
:1038A000780100202A00002004020020CC00002023
:1038B00000BFFEE7490050EAC12018BF04204A0DAE
:1038C00018BF40F0010040F2FF72B2EB515F08BF39
:1038D00040F00200012808BF052070470248006838
:1038E000C0F30220704700000CED00E010B5002886
:1038F00004DB0A07130E054A135406E00A07140EE8
:10390000034A00F00F031B1FD45410BD00E400E075
:1039100018ED00E02DE9F0414F1E00EBC701044611
:10392000D1E9000115461E4637F006020DD02A46A1
:10393000334601F09FF97F1E04EBC703D3E9002350
:1039400000F04CFF37F00602F1D1022F25D0042FF2
:1039500013D0062F18BFBDE8F0812A46334601F088
:1039600089F9D4E90A2300F039FF2A46334601F0E9
:1039700081F9D4E9082300F031FF2A46334601F0EB
:1039800079F9D4E9062300F029FF2A46334601F0ED
:1039900071F9D4E9042300F021FF2A46334601F0EF
:1039A00069F9D4E9022300F019FF2A46334601F0F1
:1039B00061F9D4E90023BDE8F04100F00FBF012216
:1039C00001F066BC002213461046114600F0B6BF57
:1039D000024A0020110701F05BBC000001FDFFFF5F
:1039E00000BF70472DE9F04D0546DFF8388221F021
:1039F00000408D4F82B00C46404520DBA0EB080113
:103A000029430BD08949884201DC10D17DB102B035
:103A100028462146BDE8F04DFFF7D1BF002CC7BFB7
:103A2000002001468248394602B0BDE8F08D0120F1
:103A3000FCF748FC02B0BDE8F04DFFF7C3BF7D497D
:103A4000884244DA7C498142A1BF79487B4902B06F
:103A5000BDE8F08D2A4623461046194601F00AF9C2
:103A60008346024676480E460B4606217844FFF709
:103A700051FF5A46334601F0FDF8074671488A4621
:103A80005A46334604217844FFF744FF5A463346EA
:103A900001F0F0F80022434600F0A0FE02460B467B
:103AA0003846514600F04AFF2A46234601F0E2F824
:103AB000654A664B01F0DCF92A46234601F0D8F945
:103AC00002B05B4ABDE8F04D5C4B01F0D1B9002C6F
:103AD0004FF000024BDA464643462846214600F0A6
:103AE0007DFE4FF0FF3201F0D3FB044602465848FA
:103AF0000D460B4606217844FFF70CFF22462B4665
:103B000001F0B8F8804653488A4622462B460421E5
:103B10007844FFF7FFFE22462B4601F0ABF8002267
:103B2000334600F05BFE06468B462046294600F0F1
:103B3000A7FB04460D4632465B464046514600F020
:103B4000FDFE22462B4601F095F83F4A3F4B01F01F
:103B500081FA22462B4600F041FE012201F098FB3B
:103B600002B03B46BDE8F04D314A01F081B92D4B22
:103B70002846214601F07CF94FF0FF3201F088FB26
:103B800005460E4600F07CFB00270C4680463A4670
:103B90000B4600F023FE82468B463A4623461046EB
:103BA000194601F067F82A46334601F061F952469A
:103BB0005B4600F0C3FE824627488B462A463346C2
:103BC00006217844FFF7A6FE2A46334601F052F854
:103BD000CDE9000121482A46334604217844FFF705
:103BE00099FE2A46334601F045F800220D4B00F0BD
:103BF000F5FD02460B46DDE9000100F09FFE42465E
:103C0000234601F037F852465B4600F0E7FD3A469E
:103C1000234600F0E3FD02B00122BDE8F04D01F0C3
:103C200037BB00000000F03FFB2109400000F07F9F
:103C3000182D44540000E03F0000603CFB21F93F98
:103C4000D8180000EE180000075C143326A6913C3B
:103C50004E1800006418000082170000981700003A
:103C60002DE9F84F04460D4621F0004000917349BC
:103C7000814211DC7249884201DC06D12CB1204618
:103C80002946BDE8F84FFFF79ABE6E48002DCCBF1D
:103C90006D496E49BDE8F88F6D49814211DD6D496E
:103CA0008142D8BF4FF0FF366DDD20462946FFF731
:103CB00001FE042808BFFFF78BFE20462946BDE819
:103CC000F88F6549654F25F00045814233DD644931
:103CD000814219DD002632464FF0804320462946B6
:103CE00000F07CFD80468A4601222046294601F0EC
:103CF000CFFA00223B4601F0ADF94246534600F0B0
:103D00001DFE04460D463EE001260022BA463B4613
:103D10002046294600F062FD80460F4600225346A9
:103D20002046294601F096F942463B4600F006FE41
:103D300004460D4627E04B4981421BDDDFF828A1F0
:103D40000226002253462046294600F093FF002217
:103D50003B4600F043FD80460F4600225346204676
:103D6000294601F077F942463B4600F0E7FD04465C
:103D70000D4608E0032622462B4600203B4900F072
:103D8000DDFD04460D4622462B461046194600F03E
:103D900071FF8B46824602460B4600F06BFF0746DA
:103DA0000246334888460B4606217844FFF7B2FDA9
:103DB00052465B4600F05EFF82462E488B463A46EE
:103DC000434605217844FFF7A5FD3A46434600F0F7
:103DD00051FF02460B46002E504659460CDA00F0C1
:103DE000FDFC22462B4600F045FF01B022462B4643
:103DF000BDE8F04F01F03CB800F0F0FC22462B4645
:103E000000F038FF1C4A7A4402EBC603D3E90023D2
:103E100001F020F922462B4601F01CF9174A7A449A
:103E200002EBC603D3E9002301F022F8009A002A2E
:103E3000B8BF81F00041BDE8F88F000000001044D9
:103E40000000F07F182D4454FB21F93FFB21F9BFFE
:103E50000000DC3F0000203E0000F33F0000F03F88
:103E60000000E63F008003400000F83F0000F0BF84
:103E70005216000010160000AE1500007615000066
:103E800010B50446304830F814100246A01D32F830
:103E90001000814227DD1146A01D31F81010801D51
:103EA00022F810100EE01E20FDF78AFB264904F1CF
:103EB0000C0031F81000401C81B2234A04F10C00C0
:103EC00022F81010204904F10C0031F8100031F8EC
:103ED00014108842E7DB1C4830F814100246A01D7D
:103EE00022F810102FE0184830F814100246A01DD8
:103EF00032F81000814226DA1146A01D31F8101068
:103F0000801D22F810100EE01E20FDF759FB0E490F
:103F100004F10C0031F81000401E81B20A4A04F18D
:103F20000C0022F81010084904F10C0031F81000C0
:103F300031F814108842E7DC034830F814100246C8
:103F4000A01D22F8101010BD0000002013B50C4673
:103F50004FF6FF73012269460248FEF7F5FE00980E
:103F60001CBD0000780100201FB5FDF7EFFCFFF736
:103F7000B0F8FEF7AFFFFEF78BFFFFF739F8FFF75A
:103F80006DF8B248FEF75CF96FF00100AF490968BF
:103F90000861AE48FEF7AAF9AD480068C06840F075
:103FA0001000AB490968C8606422AA49A848FEF716
:103FB000B3FE4AE14FF40071A748FDF7A5FC642069
:103FC000FDF7FEFAA54800780128F2D1A148007853
:103FD00037287DD1A24903C9CDE90201A14903C90E
:103FE000CDE90001A048A1490CC803C900F06EF951
:103FF00000229F4B9A4903C900F03CFE80460022F4
:104000009C4B00F09BFC064600229B4B00F0E6FB1D
:10401000044600F0EBFD994948800022944B9349F7
:1040200003C900F027FE06460022924B00F086FCF2
:1040300004460022904B00F0D1FB804600F0D6FDF4
:104040008E49888000228A4B874903C900F012FEFE
:1040500006460022874B00F071FC80460022864B0A
:1040600000F0BCFB044600F0C1FD8449C88000227A
:104070007F4B7C4903C900F0FDFD804600227D4B4B
:1040800000F05CFC064600227B4B00F0A7FB0446D8
:1040900000F0ACFD7949088196204881B9208881DB
:1040A0000420FFF7EDFE0320FFF7EAFE0120FFF7F3
:1040B000E7FE0220FFF7E4FE0620FFF7E1FE40F2F4
:1040C000DC50FDF77DFA00226A4B684903C900E025
:1040D0001BE000F083FB82460022654B00F0CAFD26
:1040E00006460022634B00F029FC04460022624B86
:1040F00000F074FB804600F079FD60498880022062
:10410000FFF7BEFE00205549087052480078382855
:104110007ED1534903C9CDE90201524903C9CDE912
:104120000001514851490CC803C900F0CFF80022E2
:104130004F4B4B4903C900F09DFD804600224D4B7B
:1041400000F0FCFB064600224B4B00F047FB044608
:1041500000F04CFD494948800022454B434903C9C2
:1041600000F088FD06460022424B00F0E7FB0446C3
:104170000022414B00F032FB804600F037FD3F4902
:10418000888000223A4B384903C900F073FD064687
:104190000022384B00F0D2FB04460022364B00F0E0
:1041A0001DFB804600F022FD3449C8800022304BC0
:1041B0002C4903C900F05EFD804600222D4B00F023
:1041C000BDFB064600222C4B00F008FB044600F025
:1041D0000DFD2A490881962048810420FFF750FEF2
:1041E0000320FFF74DFE0120FFF74AFE0220FFF7F4
:1041F00047FE40F2DC50FDF7E3F980201F4988813B
:104200000620FFF73DFE00221A4B184903C900E0C3
:104210001BE000F0E3FA06460022154B00F02AFDF1
:1042200080460022134B00F089FB04460022124B0B
:1042300000F0D4FA824600F0D9FC104988800220B0
:10424000FFF71EFE002005490870B3E6300100208C
:1042500078010020CC000020000C01402A00002042
:1042600048000020400000203800002030000020DE
:10427000000049400080464000C06240000000202D
:104280002DE9F04106460F4600F0FEFD041E0D46E6
:1042900018BF0120284320F00040C0F17F6000F1EA
:1042A000E040C00F0ED0301C18BF0120384320F072
:1042B0000040C0F17F6000F1E040C00F04BF01206A
:1042C000FCF700F820462946BDE8F0812DE9F04FC3
:1042D0008BB0F6484078302828D1F4494979A1F1CB
:1042E000300000F0B0FCF24AF24BCDE9040100F0DE
:1042F000C1FCCDE90801ED49897830396422514388
:10430000EA4AD278303A02EB820201EB4202E749F4
:1043100009793039501800F096FCCDE90601DDE945
:10432000082300F05BFAE44A03C22DE0DF4840783E
:10433000312829D1DD494979A1F1300000F083FC11
:10434000DB4ADC4BCDE9040100F094FCCDE9080127
:10435000D6498978303964225143D44AD278303AE8
:1043600002EB820201EB4202D04909793039501840
:1043700000F069FCCDE90601DDE9082300F02EFA22
:1043800081F00041CC4A03C2C8488079302828D146
:10439000C649897AA1F1300000F055FCC44AC54BEA
:1043A000CDE9040100F066FCCDE90801BF49C979F7
:1043B000303964225143BD4A127A303A02EB82020C
:1043C00001EB4202B949497A3039501800F03BFC00
:1043D000CDE90601DDE9082300F000FAB74A03C27F
:1043E0002DE0B2488079312829D1B049897AA1F1EC
:1043F000300000F028FCAE4AAE4BCDE9040100F0DD
:1044000039FCCDE90801A949C97930396422514301
:10441000A64A127A303A02EB820201EB4202A34929
:10442000497A3039501800F00EFCCDE90601DDE97B
:10443000082300F0D3F981F00041A04A03C29E484E
:104440000CC89FA0FBF7CEFE9C480CC89FA0FBF7B2
:10445000C9FE9A4801460CC803C900F00BFCCDE91F
:104460000401954801460CC803C900F003FCCDE9DE
:104470000201DDE9042300F0B1F9CDE90601FFF7FF
:10448000FFFE0022944BCDE9080100F0E3FD934AC2
:1044900003C292480CC892A0FBF7A4FE8F480146C5
:1044A0000CC803C900F0E6FB00228F4BCDE90001E8
:1044B00000F094F9CDE90201FFF7E2FE00228B4BF8
:1044C000CDE9040100F0D6FBCDE90801834801469F
:1044D0000CC803C900F0CEFB0022854BCDE90001DA
:1044E00000F07CF90022804BCDE9020100F076F962
:1044F0000022804BCDE9040100F0ACFDCDE90601BE
:10450000DDE9082300F01AFA7B4A03C27A480CC896
:104510007AA0FBF767FE784903C9FFF763FA7A4A86
:1045200003C279480CC879A0FBF75CFE6B480CC845
:1045300000207A4900F002FACDE90801FFF790FB6C
:10454000774A03C276480CC876A0FBF74BFE634857
:1045500001460CC803C900F08DFB0022644BCDE975
:10456000020100F085FC00225F4BCDE9040100F060
:1045700071FD00225F4BCDE9060100F02FF900220A
:104580006C4BCDE9080100F0D9F96B4A03C26A48C7
:104590000CC86AA0FBF726FE674903C9FFF722FA99
:1045A000694A03C268480CC868A0FBF71BFE56485E
:1045B0005B490CC803C900F011F9684A684BCDE9A2
:1045C000040100F0BBF90022664BCDE9060100F0C2
:1045D00051FB0022644BCDE9080100F049FC81F059
:1045E0000045044622462B4660A0FBF7FBFD5B4AD4
:1045F0005B4B554903C900F0A1F90022594BCDE9A5
:10460000060100F037FB00225C4BCDE9080100F009
:104610002FFC06460F4632463B4659A0FBF7E2FD0B
:10462000494839490CC803C900F0D8F8CDE902015E
:104630003B480CC8029800F0D1F8484A484BCDE9F5
:10464000040100F07BF90022464BCDE9060100F0A1
:1046500011FB0022494BCDE9080100F009FC82461C
:104660008B4652465B464AA0FBF7BCFD12481349F5
:104670000CC803C900F062F9CDE90401FFF7F0FAB4
:10468000364A374BCDE9060100F058F90022354B88
:10469000CDE9080100F0EEFA8046894642464B46D5
:1046A0003FA0FBF79FFD0BB0BDE8F08FCC000020D2
:1046B0009A9999999999B93F700000207800002043
:1046C0007830203D2025660A000000007930203D2A
:1046D0002025660A000000000040654080000020A0
:1046E0006D203D2025660A000000704000E0694012
:1046F00020ECC4400040BE40880000206131203DD5
:104700002025660A00000000A0000020616E676C92
:104710006531203D2025660A000000000000304081
:10472000A8000020616E676C6532203D2025660A76
:104730000000000000CAD140980000206133203DF5
:104740002025660A00000000B0000020616E676C42
:104750006533203D2025660A00000000F1D4C853CF
:10476000FB211940008076400080564074686574D3
:104770006131203D2025660A00000000008066406F
:10478000746865746132203D2025660A00000000CF
:10479000746865746133203D2025660A00000000BE
:1047A000746865746134203D2025660A00000000AD
:1047B00010B500290AD00878002807D005487844A9
:1047C000FCF7F6F8002801D0002010BD024878441C
:1047D00010BD0000260D00001E0D000010B591EA6E
:1047E000030F48BF83F0004300F13C84841A71EB4F
:1047F000030C05D2121943EB0C03001B61EB0C01F7
:10480000DFF824E14FEA1154A4EB135C1EEA430FD6
:1048100018BF9EEA445F73D023EA0E03DCF1200E3A
:1048200021EA045143F4801332D322FA0CFE10EB38
:104830000E0023FA0CFE41EB0E01CCF1200E03FA20
:104840000EFE10EB0E0051F10001B1F5801FCCF10E
:10485000200E32D201EB045112FA0EF2BDE81040E4
:1048600058BF7047401C38BF5FEA420218BF70470C
:10487000002814BF20F0010041F100014FEA41037C
:1048800013F5001F38BF7047A1F1C04100F0EABA2C
:10489000012A43EB0302ACF1200CDCF11F0E32BF06
:1048A0004FF0000E23FA0CF310EB030041EB045120
:1048B000B4EB115FD0D0A1EB045101F58011490890
:1048C0005FEA300001EB04510ED350F1000038BF15
:1048D00012FA0EFE08D1BDE81040C9E7401C38BFEF
:1048E0005FEA4202CAD1C3E7BDE810404FEA410384
:1048F00013F5001F38BF7047A1F1C04100F0B2BAF4
:104900009EEA445F08D011EA5E0FBDE8104004BF84
:1049100001F0004100207047BDE8104070B500F084
:1049200053FA00BF64FBBE3E0000E0FF02494FF0B7
:10493000000000F07BBC00BF0000F87F2DE9C04103
:1049400030B4DFF8A0C23CEA111418BF3CEA1314DB
:1049500000F0EC8081EA03051CEA111444EAD574E6
:1049600018BF1CEA131500F0C780A4EB05044FF034
:10497000004545EAC12145EAC32341EA505143EAD3
:10498000525304F17F74994204F500344FEAC02079
:104990004FEAC22208BF904200F09C804FEA1365A4
:1049A0000FF24016765D4FEA134506FB05F7C7F197
:1049B000807706FB07F74FEAD737A7FB03687642F5
:1049C000C8F58038A7FB06CE38BFA8F1010807FB61
:1049D00008E64FF0000EA6FB028CE6FB03CEDCF1EE
:1049E000000CCEF1004E38BFAEF1010EA6FB0C5804
:1049F0004FF000074FF00005E6FB0E87A1FB08C64D
:104A0000A0FB07CE16EB0E0645F10005E1FB07659E
:104A100015F1E04E7EBFA4F580345FEA46066D4195
:104A200016F1800745F100054FEA17274FEA0666A1
:104A300047EA0567A6F1DE46B6F1805F4FEA152525
:104A40001FD9384624F0010C05EBC471BCF1FE6F90
:104A500001EB0C1102D8F0BCBDE8008124425CBF20
:104A600001F5801E9EEAC47F02D4F0BCBDE800813F
:104A7000244238D4F0BCA1F1C041BDE8004100F0AF
:104A8000F1B94FEAD22242EA43524FEAD323A7FBBD
:104A900002864FEAD02040EA415007FB03661EEA37
:104AA0000E0F4FEAD12105FB026658BFA6EB005658
:104AB000B6EB00564FEA520E4EEAC37E18EB0E0ECE
:104AC00056EB530EBDD518EB02085E417F1C55F125
:104AD0000005B6E74FF480154FF000074FF00006D1
:104AE0004FF00008ADE7F0BC4FF0000001F1C0410D
:104AF00001F00041BDE8008111EA0C1F0CEA13151A
:104B000000D00CE013EA0C1F00F025804FF00000ED
:104B1000F0BC81EA030101F00041BDE80081F0BC76
:104B2000BDE8004181EA030100F09CB9F0BCBDE89A
:104B3000004170B500F048F9097EFC3E00F007B86E
:104B400081EA03014FF0000001F00041704781EA63
:104B5000030100F087B9F0BCBDE800414FF0000050
:104B600021497047FFFDFBF9F7F5F4F2F0EEEDEBAC
:104B7000E9E8E6E4E3E1E0DEDDDBDAD8D7D5D4D35B
:104B8000D1D0CFCDCCCBCAC8C7C6C5C4C2C1C0BFA7
:104B9000BEBDBCBBBAB9B8B7B6B5B4B3B2B1B0AFAD
:104BA000AEADACABAAA9A8A8A7A6A5A4A3A3A2A191
:104BB000A09F9F9E9D9C9C9B9A999998979796954C
:104BC00095949393929191908F8F8E8E8D8C8C8BE8
:104BD0008B8A898988888787868585848483838270
:104BE000828181800000FF070000F87F4FEA1153A7
:104BF000A3F58063D3F11E03A8BFD3F1200C08DB1B
:104C00004FF0004242EAC12252EA505232FA03F017
:104C1000704709420BD4102BC4BF0020704703F526
:104C2000787CBCF1FF3F05D04FF0FF3070474FF06C
:104C30000000704770B500F0C7F800BF49922480AB
:104C400000207047F0E710F0004248BF4042B0FA41
:104C500080F310FA03F10AD0C3F11D0303F580635A
:104C60004FEA415002EB035202EBD12170474FF063
:104C700000007047DFF848C170B51CEA111E1EBF66
:104C80001CEA13159EEA0C0F95EA0C0F00F06F80DA
:104C900081EA030423EA4C134EEAD47E21EA4C1144
:104CA00041F4801143F48013AE44A1FB024CA0FBFD
:104CB0000365AEF17F7E361955EB0C05A1FB034C65
:104CC0004CF10003A0FB021C16EB0C06654153F1EE
:104CD0000003094218BF46F0010613F4007F0BD110
:104CE0004FEA03314FEA0530340341EA155140EAF7
:104CF00016506FF003020AE04FEAC3214FEAC520C5
:104D0000F40241EA555140EA56506FF0020202EBBC
:104D10002E4201EB025585EACE710AD05FEA440CBF
:104D200018BF24F0004450F1000041F1000120EAD6
:104D3000D47040F2FE7C624500D270BDA84214BF20
:104D40004FF080444FF04044002E08BF0024BEF1D5
:104D5000806FA8BFA1F1C041BDE8704080F28280A1
:104D60004FF0000001F1C04101F0004170479EEAA0
:104D70000C0F0CEA131518BF95EA0C0F06D04FF074
:104D8000000081EA030E0EF0004170BD00F01CF837
:104D90008900013E00F007B800F009B84FEA430C63
:104DA0005FEA5C5C08D081EA030100F05BB84FEA7F
:104DB000410C5FEA5C5CF6D14FF00000014970479E
:104DC0000000FF070000F87F0EF1020E2EF0030E28
:104DD0005EF8046B364205D4012A43EB030515F552
:104DE000001F12D8012841EB010C1CF5001F0CD844
:104DF0000ED14FEAD17C15F5001F0CEB4C0C0CF1D9
:104E0000020C08BF4CEBD37C04E04FF0080C01E02F
:104E10004FEAD37C0CEB4C0526FA05F606F00706A4
:104E2000B6F1040C06D20EEB860CBDE870404CF0D7
:104E3000010C6047DFE80CF0090B02024FF0004163
:104E40004FF00000A1F5002170BD19461046012861
:104E500051EB010418BFD4F5001484BF002001F009
:104E6000004170BD0808A0F500114FEA31017047FC
:104E700091EA030F10B581F000413FF5B7AC83F024
:104E8000004300F0EFB800002DE9F04101F5801C6F
:104E9000BCF5001FC0F2C3804FEA115C21EA0C513F
:104EA0000CF1FD0C41F480115FEA5C0C0CF5C07C48
:104EB00001D3400049413DA4890241EA9051870253
:104EC0008E0E0A0CA45D04FB04F602FB06F6C6F186
:104ED0004046A4FB0662F60D46EA422606FB06F4AF
:104EE000A4FB01235242C3F1404338BF5B1EA6FB23
:104EF00002420024E6FB0324D20B42EA4446A6FB0E
:104F00000623A1FB02E2A3FB07E4A4184FF0000272
:104F100052F10002E3FB01426442C2F1404E38BF4D
:104F2000AEF1010EA6FB04234FF00002E6FB0E32A9
:104F3000A2FB03464FF00004B61954F10004E2FB53
:104F40000264A1FB06E6A4FB07E816EB08064FF097
:104F5000000858F10008E4FB01687642C8F14058A7
:104F600038BFA8F10108A2FB06E4A3FB08E52D1950
:104F70004FF0000454F10004E2FB0854A1FB05E6E5
:104F8000A7FB04E818EB06084FF0000656F10006F0
:104F9000E1FB048618F1200556F10006A809A8F1E6
:104FA0001B08B10908F03F08B8F10A0F40EA866013
:104FB0001CD901EB0C51BDE8F08100BFFCF5EEE817
:104FC000E2DDD8D3CFCBC7C3C0BDB9B6B4B1AEACA8
:104FD000A9A7A5A3A19F9D9B9A9896959392908F20
:104FE0008D8C8B898887868584838281A0FB00686D
:104FF00000FB01F208EB4208B8EB872807D534180C
:1050000058EB0104D5D5401C51F10001D1E7341A09
:1050100078EB0104CDD4401E71F10001C9E75FEACD
:105020004C0C5FEA9C5C0DD105D34FF0000001F001
:105030000041BDE8F081BDE8F04170B5FFF7C4FE66
:105040006DDBFFBEBDE8F0414FF000000049704746
:105050000000F87F10B591EA030F48BF83F00043CA
:105060003FF5C4AB841A71EB030C07D212198CF014
:10507000004C43EB0C03001B61EB0C01DFF8A4E1D7
:105080004FEA1154A4EB135C1EEA430F18BF9EEACB
:10509000445F00F0B08023EA6E03524221EA0451DB
:1050A000C3EB6E0338BF5B1EDCF1200E25D322FA62
:1050B0000CFE10EB0E0043FA0CFE41EB0E01CCF19E
:1050C000200E03FA0EFE10EB0E0051F10001CCF1A0
:1050D000200E29D412FA0EF201EB0451BDE8104063
:1050E00058BF7047401C1CBFB2F1004F70470028EA
:1050F0000CBF491C20F00100704712EB020E43EB7D
:10510000030218BF4FF0010E4EEA4202ACF1200C30
:10511000DCF11E0E54D943FA0CFE10EB0E0051F1D7
:10512000FF31CCF11E0ED5D50EF1010E12FA0EFE96
:10513000404141EB010101EB445C5FEA5C5C10D94A
:1051400010EBDE7001EB045138BFBEF1004FBDE83B
:10515000104018BF704700280CBF491C20F0010008
:10516000704730D24FEAD42C11F5001124F40064BA
:105170001BD0B1FA81F20B3AA41AA41ED2F120037B
:10518000914030FA03F31943904001EBCC71002CAD
:1051900001EB0451BDE81040A8BF704701F1C041C8
:1051A0004FF0000001F000417047B0FA80F310FAB0
:1051B00003F100D110BDE41A173C4805C90AE4E721
:1051C00001EB045110BD491001EB0451BDE8104042
:1051D0004FEA300002E04FF0000170474A0008BF7C
:1051E0000042F8D0B2F5001F28BF704701F000411F
:1051F0004FF0000070479EEA445F07D011EA5E0F4F
:10520000BDE8104004BF002100207047BDE81040F9
:1052100070B5FFF7D9FD00BF40DFF63E83F00041D7
:10522000104670470000E0FFFBF72BB90CF00F03AE
:10523000092B08BF082000F059800A2B0BD0082B3F
:1052400018BF704708BF1CF0400F0AD04FF0000095
:105250004FF0000170471CF0400F18BF4FF00040A6
:1052600070471CF0100F08D020F0704300F07F4210
:1052700042EAD3014FEA4370704700F0604021F0EA
:105280007F4242EA000201F07F4040EA72707047BC
:105290004FF0FF0C4CF4E06C1CEA11531CBF9CEA6D
:1052A000030C9445C2BFDA4201EB02517047002B58
:1052B0000DD0BCF1000F0FD0002A01F00041A4BFB7
:1052C00041F0E04141F07F614FF00000704701F094
:1052D00000414FF00000704750EA01334FF09B0C43
:1052E00018BF4CF0806C7FF421AB70471CF4801F1A
:1052F00011D01CF4E02F03D06FEACC314900704785
:105300004FF04050EFF3008222F0704242EA000278
:1053100082F3008870474FF00000704702030405D5
:10532000060708090A0B0C0D0E0F101001020000F1
:105330000000000000000102030406070809000045
:105340000000010203040000555555555555C53F51
:105350007D6FEB0312D6D4BF5544880E55C1C93FAB
:105360003B8F68B52882A4BF88B20175E0EF493F42
:1053700009F7FD0DE13D023F4B2D8A1C273A03C082
:10538000C88A599CE52A004059018D1B6C06E6BF6E
:1053900082922EB1C5B8B33F4FBB610567ACDD3F0C
:1053A000182D4454FB21E93F9BF681D20B73EF3F4C
:1053B000182D4454FB21F93FE2652F227F2B7A3CC4
:1053C000075C143326A6813CBDCBF07A8807703C7D
:1053D000075C143326A6913CC4EB98999999C9BFF0
:1053E000711623FEC671BCBF6D9A74AFF2B0B3BF25
:1053F0009AFDDE522DDEADBF2F6C6A2C44B4A2BFE5
:105400000D5555555555D53FFF8300922449C23F50
:105410006E204CC5CD45B73F513DD0A0660DB13F84
:10542000EB0D76244B7BA93F11DA22E33AAD903F96
:1054300002400000000000A0000000000540000045
:10544000000000C8000000000C4000000000409C6C
:1054500000000000194000000020BCBE0000000059
:1054600034400000BFC91B8E00000004B54000009E
:10547000504BCFD06607E2CF010000006C41000026
:105480003E8251AADFEEA73401000000D94200009D
:10549000DCB5A0E23A301F97FFFFFFFFB4450000E4
:1054A000FD25A0C8E9A3C14FFFFFFFFFFF3F00009C
:1054B0000000008000000000FF3F000000000080AE
:1054C000000000000055000800000020B8000000A7
:1054D00028010008B8550008B8000020F0070000B7
:1054E000440100081C00000043000000F8FFFFFF1B
:1054F0000C0000000E0000000F0000002E00000055
:10550000960096009600960096009600640096001D
:10551000960096009600960064009600960096000D
:1055200096009600640000000000000000000000EB
:10553000000000000000000000000000000000006B
:10554000000000000000000000000000000000005B
:10555000000000000000000010000000010000003A
:105560000024F40000000000000000000000000023
:10557000000000000000000000000000000000002B
:10558000000000000000000000000000000000001B
:10559000000000000000000000000000000000000B
:1055A00000000000000000000000000000000000FB
:0855B0000000000000000000F3
:04000005080000ED02
:00000001FF
